:020000040800F2
:10700000005000204DA60008DD830008E38300083F
:10701000E9830008EF830008F58300080000000002
:10702000000000000000000000000000FB830008DA
:1070300007840008000000001384000829AB000842
:1070400095A6000895A6000895A6000895A6000834
:1070500095A6000895A6000895A6000895A6000824
:1070600095A6000895A6000895A6000895A6000814
:1070700095A6000895A6000895A6000895A6000804
:1070800095A600082184000895A6000895A600088A
:1070900095A6000895A6000895A6000895A60008E4
:1070A00095A6000895A6000895A6000895A60008D4
:1070B00095A6000895A6000895A6000895A60008C4
:1070C00095A6000895A6000895A6000895A60008B4
:1070D00095A6000845AB0008CDAB00089DAB0008A5
:1070E00095A6000895A6000895A6000800000000D7
:1070F0000000000000000000000000000000000090
:0C71000000000000000000005FF808F133
:10710C0010B5054C237833B9044B13B10448AFF3D5
:10711C0000800123237010BD6402002000000000D9
:10712C00DCAD000808B5034B1BB103490348AFF3B2
:10713C00008008BD0000000068020020DCAD0008E3
:10714C0080B483B000AF0346FB7197F90730002B76
:10715C0012DBFB7903F01F020A4997F907305B0930
:10716C00012000FA02F2203341F82320BFF34F8FA5
:10717C0000BFBFF36F8F00BF00BF0C37BD4680BC94
:10718C00704700BF00E100E080B483B000AF03465D
:10719C00FB7197F90730002B0CDBFB7903F01F0216
:1071AC00074997F907305B09012000FA02F26033B6
:1071BC0041F8232000BF0C37BD4680BC704700BF90
:1071CC0000E100E080B500AF02F0F8FE03F0AAF990
:1071DC0002F07AFF00BF80BD80B586B000AF78604A
:1071EC00124B00221A604FF0FF30FFF7A9FF4FF04F
:1071FC00FF30FFF7C9FF0E4A7B689360BFF34F8FD8
:10720C0000BF7B681B68FB60FB6883F3088800BFCA
:10721C007B6804331B687B617B693B613B699847E6
:10722C00002318461837BD4680BD00BF10E000E0B3
:10723C0000ED00E080B584B000AF03463960FB710F
:10724C003B68002B01D100234CE042F21C0003F000
:10725C00C7FC0346FB60FB68002B01D1002341E017
:10726C0097F90730002B03DAFB6801221A7002E051
:10727C00FB68FA791A70FB6803F500531A463B68F1
:10728C001361FB6801334FF480520021184603F060
:10729C005BFDFB6803F580530C334FF480520021E7
:1072AC00184603F051FDFB6803F580531A46002382
:1072BC005360FB6803F500531A460023D360FB6848
:1072CC0003F580531A4600239360FB6803F50053C3
:1072DC001A4600235361FB6803F500531A4600233A
:1072EC009361FB6818461037BD4680BD80B485B0ED
:1072FC0000AFF860B9607A60FB68002B02D0BB6805
:10730C00002B02D14FF0FF330CE0FB6803F5005368
:10731C001A46BB685361FB6803F500531A467B6839
:10732C009361002318461437BD4680BC704790B556
:10733C00ADF5815D81B000AF07F1200444F8140C69
:10734C0007F1200040F8181C07F1200141F81C2C13
:10735C0007F1200242F8203C002307F5805202F18D
:10736C001C02136007F5815303F110031B680533EE
:10737C0007F5805202F114021360002307F58052C6
:10738C0002F11802136007F1200353F8143C002B90
:10739C0002D14FF0FF3322E107F5805303F11C03B8
:1073AC001B685A1C07F5805101F11C010A6007F19A
:1073BC0020021344AA2203F8102C07F5805303F182
:1073CC0014031B68191207F5805303F11C031B6887
:1073DC005A1C07F5805000F11C000260CAB207F17C
:1073EC0020010B4403F8102C07F5805303F11C0308
:1073FC001B685A1C07F5805101F11C010A6007F546
:10740C00805202F114021268D2B207F120010B442F
:10741C0003F8102C07F5805303F11C031B685A1C4E
:10742C0007F5805101F11C010A6007F1200252F8A6
:10743C00142C127807F120010B4403F8102C07F5DB
:10744C00805303F11C031B685A1C07F5805101F192
:10745C001C010A6007F1200252F8182CD2B207F175
:10746C0020010B4403F8102C07F5805303F11C0387
:10747C001B685A1C07F5805101F11C010A6007F1C9
:10748C00200252F81C2CD2B207F120010B4403F855
:10749C00102C002307F5805202F11802136025E02E
:1074AC0007F5805303F118031B6807F1200252F80B
:1074BC00202C1A4407F5805303F11C031B68591C3C
:1074CC0007F5805000F11C000160127807F12001D3
:1074DC000B4403F8102C07F5805303F118031B68B9
:1074EC00013307F5805202F11802136007F580533F
:1074FC0003F118031A6807F5815303F110031B6895
:10750C009A42CDDB07F5805303F11C031A6807F18F
:10751C002003103B1146184600F0E2FE034607F527
:10752C00805202F11202138007F5805303F112030B
:10753C001B881B0A99B207F5805303F11C031B68C7
:10754C005A1C07F5805000F11C000260CAB207F10A
:10755C0020010B4403F8102C07F5805303F11C0396
:10756C001B685A1C07F5805101F11C010A6007F5D4
:10757C00805202F112021288D2B207F120010B44A0
:10758C0003F8102C07F5805303F11C031B685A1CDD
:10759C0007F5805101F11C010A6007F12002134428
:1075AC00552203F8102C07F1200353F8143C03F573
:1075BC0000531A6907F12003103B07F5805101F1C4
:1075CC001C010968184690470346002B02DC4FF05B
:1075DC00FF3304E007F5805303F11C031B681846C6
:1075EC0007F581570437BD4690BD90B587B000AF05
:1075FC0078607B687B614FF0FF333B610023FB605D
:10760C00B1E07B6903F580539A687B6903F50053FD
:10761C00DB6879690A4451787A69134403F580531D
:10762C000C330A461A707B6903F50053DB687A69E0
:10763C00134403F580530C331B78552B50D17B69C5
:10764C0003F50053DA687B6903F580535B7B1B02FF
:10765C00796901F58051897B0B4403339A423FD100
:10766C007B6903F58053DA7B7B691B789A4240F087
:10767C0086807B6903F580530C337A6902F50052DE
:10768C00D2681146184600F02BFE03467B817B899D
:10769C00002B76D17B6903F500535B69002B18D066
:1076AC007B6903F580531B7CFB607B6903F50053FE
:1076BC005C697B6903F5805111317B6903F50053DB
:1076CC00DB68DA1F7B6903F500539B69F868A047F8
:1076DC0038617B6903F500531A460023D3602CE014
:1076EC007B6903F50053DB687A69134403F5805317
:1076FC000C331B78AA2B05D17B6903F50053DB688F
:10770C00002B05D07B6903F50053DB68002B14DDDF
:10771C007B6903F50053DB6801337A6902F500528B
:10772C00D3607B6903F50053DB681F2B05DD7B6998
:10773C0003F500531A460023D3607B6903F580538D
:10774C009B6801337A6902F5805293607B6903F57B
:10775C0080539B68B3F5805F05DB7B6903F5805331
:10776C001A46002393607B6903F580535A687B6942
:10777C0003F580539B689A427FF443AF02E000BF4D
:10778C0000E000BF1C37BD4690BD80B487B000AF91
:10779C00F860B9607A607B683B6100237B613B6970
:1077AC00002B02D14FF0FF3327E000237B6120E058
:1077BC007B69FA681A443B6903F580535B68591C72
:1077CC00386900F58050416011783A6913440A46D3
:1077DC005A703B6903F580535B68B3F5805F05DB3A
:1077EC003B6903F580531A46002353607B690133D0
:1077FC007B617A69BB689A42DADB18461C37BD4656
:10780C0080BC704790B585B000AFF8607A603B6083
:10781C000B467B813B68D3F85841798900237A6801
:10782C00F868A047034618461437BD4690BD90B57E
:10783C0085B000AFF8607A603B600B467B813B689B
:10784C00D3F85441798900237A68F868A047034635
:10785C0018461437BD4690BD90B58BB000AFF8609C
:10786C00B9607A60134ABB68C2F85831114AFB6898
:10787C00C2F85431104B07F114040FCB84E80F00FD
:10788C0007F1140319460B4800F0A5FC034687F8D2
:10789C0027304FF47A71074800F010F897F9273029
:1078AC00002B01D0002300E0024B18462C37BD46BC
:1078BC0090BD00BF80020020F4AD000880B582B0FE
:1078CC0000AF786039607B683A681146184600F062
:1078DC0097F97B683A681146184600F083F9002343
:1078EC0018460837BD4680BD80B586B000AFF8603D
:1078FC00084611461A460346FB720B463B8113465B
:10790C00FB80FB68FA7A1146184600F087F9F86894
:10791C00FA8839893B6A00F0CCFC0346FB7597F971
:10792C00173018461837BD4680BD80B586B000AFFD
:10793C00F860084611461A460346FB720B463B811B
:10794C001346FB80FB68FA7A1146184600F066F97C
:10795C00F868FA8839893B6A00F094FC0346FB7599
:10796C0097F9173018461837BD4680BD80B485B0DE
:10797C0000AF78607B68B3F804311A467B689B5C77
:10798C00FB737B68B3F8043101339AB27B68A3F8BC
:10799C000421FB7B18461437BD4680BC704780B46D
:1079AC0083B000AF78600B46FB707B68B3F8043192
:1079BC0019467B68FA785A547B68B3F80431013362
:1079CC009AB27B68A3F8042100BF0C37BD4680BC7B
:1079DC00704780B483B000AF78607B68B3F8043133
:1079EC0001339AB27B68A3F8042100BF0C37BD4663
:1079FC0080BC704780B485B000AF78607B68B3F80A
:107A0C0004311A467B689B5C1B021AB27B68B3F884
:107A1C00043101337968CB5C1BB213431BB2FB817D
:107A2C007B68B3F8043102339AB27B68A3F8042163
:107A3C00FB8918461437BD4680BC704780B483B0B0
:107A4C0000AF78600B467B807B881B0A99B27B6801
:107A5C00B3F804311A46C9B27B6899547B68B3F801
:107A6C00043101337A88D1B27A68D1547B68B3F887
:107A7C00043102339AB27B68A3F8042100BF0C379F
:107A8C00BD4680BC704780B483B000AF78607B6823
:107A9C000022A3F8042100BF0C37BD4680BC704700
:107AAC0080B582B000AF78607868FFF7ECFF7B6838
:107ABC00002283F806217B68002283F807217B686B
:107ACC000022A3F808217B68002283F80A217B6836
:107ADC00002283F80B2100BF0837BD4680BD80B55E
:107AEC0082B000AF78600B46FB707B68B3F8523104
:107AFC004FF6FF72934204D17B680122A3F8522106
:107B0C0007E07B68B3F8523101339AB27B68A3F873
:107B1C0052217868FFF7C4FF7B6893F851217B688A
:107B2C0083F806217B68FA7883F807217B68B3F821
:107B3C0052217B68A3F808217B6893F80631002B4F
:107B4C0008D17B6893F84031012B03D17B6801226B
:107B5C0083F80A2100BF0837BD4680BD90B583B0BD
:107B6C0000AF786039607B68002B02D14FF0FF3397
:107B7C0034E04FF4AA720021786803F0E5F87B68D2
:107B8C004FF0FF32C3F838217B684FF0FF32C3F857
:107B9C003C213B68002B02D14FF0FF331EE03B68C9
:107BAC001B78012B06D03B681B78022B02D04FF0C0
:107BBC00FF3313E03B685B68002B03D03B689B688A
:107BCC00002B02D14FF0FF3308E07B683A6803F5D5
:107BDC00A07413460FCB84E80F00002318460C3713
:107BEC00BD4690BD80B483B000AF786039607B68CF
:107BFC003A68C3F83C2100BF0C37BD4680BC7047C7
:107C0C0080B483B000AF786039607B683A68C3F8A1
:107C1C00382100BF0C37BD4680BC704780B483B0A0
:107C2C0000AF78600B46FB707B68FA7883F85121C3
:107C3C0000BF0C37BD4680BC704780B487B000AF26
:107C4C00786039604FF6FF73FB8200233B6126E0BE
:107C5C007A683B6913441B789AB2FB8A5340FB82C7
:107C6C000823FB6015E0FB8A03F00103002B0AD00C
:107C7C00FB8A5B08FB82FB8A83F4BF4383F07E03A1
:107C8C00DB43FB8202E0FB8A5B08FB82FB68013B67
:107C9C00FB60FB68002BE6D13B6901333B613A6921
:107CAC003B689A42D4D3FB8A5BBA9BB218461C370A
:107CBC00BD4680BC704790B585B000AF78600B4670
:107CCC007B807B68D3F844417B687A68B2F80421E6
:107CDC0098187B68D3F838217B68D3F84C317988B5
:107CEC00A047F8607B88FA689A4201D100230EE025
:107CFC007B88FA689A4208DAFB68002B02DA6FF08C
:107D0C00030304E06FF0020301E06FF00303184675
:107D1C001437BD4690BD90B585B000AF78600B466A
:107D2C007B807B68D3F8484178687B68D3F838212E
:107D3C007B68D3F84C317988A047F8607B88FA6867
:107D4C009A4201D100230EE07B88FA689A4208DA45
:107D5C00FB68002B02DA6FF0030304E06FF0020300
:107D6C0001E06FF0030318461437BD4690BD80B593
:107D7C0084B000AF78607B6893F84031012B22D13E
:107D8C007A687B68B3F8043119461046FFF755FF43
:107D9C000346FB8102217868FFF78DFF03467B7356
:107DAC0097F90D30002B02D097F90D300CE0786864
:107DBC00FFF720FE03467B817A89FB899A4202D029
:107DCC006FF0040300E0002318461037BD4680BD59
:107DDC0080B586B000AF786039607B68D3F83831F5
:107DEC007B617B68D3F83C217B68C3F838217868C9
:107DFC00FFF756FE3B6800221A707B6893F84031FF
:107E0C00012B31D101217868FFF755FF03467B73B5
:107E1C007B687A69C3F8382197F90D30002B02D0B2
:107E2C0097F90D307BE03B6801221A707868FFF7F8
:107E3C009DFD03461A467B6883F80621012178686C
:107E4C00FFF739FF03467B7397F90D30002B02D0F7
:107E5C0097F90D3063E07868FFF788FD03461A4602
:107E6C007B6883F8072159E07B6893F84031022B3B
:107E7C0054D101217868FFF71EFF0346FB747B6821
:107E8C007A69C3F8382197F91330002B02D097F98F
:107E9C00133044E03B6801221A707868FFF799FDB3
:107EAC0007217868FFF707FF0346FB7497F9133037
:107EBC00002B02D097F9133031E07868FFF7E3FD1F
:107ECC007868FFF797FD03461A467B68A3F80821EC
:107EDC007868FFF78FFD03463B827868FFF78AFDD1
:107EEC000346FB817868FFF741FD03461A467B6821
:107EFC0083F806217868FFF739FD03461A467B683C
:107F0C0083F807213B8A002B02D06FF0050306E0B3
:107F1C00FB89FF2B02D96FF0050300E00023184604
:107F2C001837BD4680BD80B582B000AF78600B4677
:107F3C007B807868FFF7A7FD7B6893F84031012BB5
:107F4C0007D17B6893F8063119467868FFF727FD4F
:107F5C001DE07B6893F84031022B18D17B68B3F895
:107F6C00083119467868FFF769FD00217868FFF73A
:107F7C0065FD7B8802339BB219467868FFF75EFD7E
:107F8C007B6893F8063119467868FFF708FD7B6823
:107F9C0093F8073119467868FFF701FD00BF0837E1
:107FAC00BD4680BD80B584B000AF78607B6893F827
:107FBC004031012B0ED17A687B68B3F80431194635
:107FCC001046FFF73AFE0346FB81FB891946786899
:107FDC00FFF734FD7B68B3F8043119467868FFF776
:107FEC009AFE03467B7397F90D3018461037BD4641
:107FFC0080BD80B584B000AF78607B68B3F8083181
:10800C00FB817B6893F806317B737B6893F80731AF
:10801C003B7307F1090319467868FFF7D9FE03464D
:10802C00FB7297F90B30002B02D097F90B3057E00D
:10803C007B6893F84031022B08D17B68B3F8083188
:10804C00FA899A4202D06FF0050349E07B6893F8F5
:10805C004031012B08D17B6893F806317A7B9A4228
:10806C0002D06FF006033BE07B6893F807313A7B54
:10807C009A4234D07B6893F80731A3F180023B7BA2
:10808C009A4229D101217868FFF715FE0346FB724D
:10809C0097F90B30002B02D097F90B3020E0786861
:1080AC00FFF764FC0346BB727868FFF760FE03467B
:1080BC00FB7297F90B30002B02D097F90B300FE0C5
:1080CC00BB7A002B02D0BB7A042B02D96FF00103D0
:1080DC0006E097F90A3003E06FF0010300E000239B
:1080EC0018461037BD4680BD80B582B000AF7860B1
:1080FC000B467B807B8819467868FFF714FF00BF1E
:10810C000837BD4680BD80B586B000AFF8600B4621
:10811C007A607B81F868FFF76CFF0346FB7497F974
:10812C001330002B02D097F9133050E00121F8687E
:10813C00FFF7C1FD0346FB7497F91330002B02D0F7
:10814C0097F9133043E0F868FFF710FC0346BB7453
:10815C00BB7C9BB21946F868FFF7ADFD0346FB7478
:10816C0097F91330002B02D097F913302FE000232E
:10817C007B6110E0F868FFF73DFC03463B827B68AF
:10818C00002B05D07B695B007A6813443A8A1A800D
:10819C007B6901337B61BB7C5B08DBB21A467B6974
:1081AC009342E7DBF868FFF7E2FD0346FB7497F9AF
:1081BC001330002B02D097F9133008E0BA7C7B897E
:1081CC005B009A4202D06FF0010300E000231846D6
:1081DC001837BD4680BD80B582B000AF786039607D
:1081EC0039687868FFF7BAFC034618460837BD466D
:1081FC0080BD80B586B000AFF860084611461A46BF
:10820C000346FB720B463B811346FB80FB88002B1D
:10821C0002D0FB887D2B02D94FF0FF332EE03A8938
:10822C00FB881344B3F5803F02D94FF0FF3325E0B0
:10823C00FB7A1946F868FFF752FC0421F868FFF73F
:10824C0053FF3B891946F868FFF7F8FBFB88194682
:10825C00F868FFF7F3FBF868FFF7A4FE0346FB751D
:10826C0097F91730002B02D097F9173006E0FB88EE
:10827C003A6A1946F868FFF746FF0346184618375E
:10828C00BD4680BD80B586B002AFF8607B600B4602
:10829C007B8113463B8139897A897B6800930B4635
:1082AC000321F868FFF7A5FF034618461037BD46B3
:1082BC0080BD80B586B002AFF8607B600B467B81D9
:1082CC0013463B8139897A897B6800930B460421DC
:1082DC00F868FFF78EFF034618461037BD4680BD81
:1082EC0090B484B000AF786039600023FB81002328
:1082FC00BB607B68002B21D04FF6FF73FB81002302
:10830C00BB6017E0FB891B021AB20F4B1968FB8983
:10831C001B0A9BB21C467868BB6803441B786340FD
:10832C005B000B441B881BB253401BB2FB81BB6828
:10833C000133BB60BA683B689A42E3D3FB891846A9
:10834C001037BD4690BC70470002002080B400AFCF
:10835C0072B600BFFEE7000080B586B000AF786053
:10836C00144A154BD31A7B617B693B61134B1B6819
:10837C00002B02D1114B124A1A60104B1A687B6801
:10838C0013443A699A4207D202F0F6FC03460C22D7
:10839C001A604FF0FF3309E0084B1B68FB60074B7A
:1083AC001A687B681344054A1360FB681846183733
:1083BC00BD4680BD0050002000040000E0030020FA
:1083CC004809002080B400AF00BFBD4680BC704798
:1083DC0080B400AFFEE780B400AFFEE780B400AF1E
:1083EC00FEE780B400AFFEE780B400AFFEE780B4D8
:1083FC0000AF00BFBD4680BC704780B400AF00BF6B
:10840C00BD4680BC704780B400AF00BFBD4680BC89
:10841C007047000080B500AF024800F0D5F900BFEE
:10842C0080BD00BF9805002080B485B000AF154B0F
:10843C009B69144A43F001039361124B9B6903F04F
:10844C000103BB60BB680F4BDB690E4A43F08053E2
:10845C00D3610C4BDB6903F080537B607B680A4B68
:10846C005B68FB60FB6823F0E063FB60FB6843F038
:10847C000073FB60044AFB68536000BF1437BD46B1
:10848C0080BC7047001002400000014080B485B0F1
:10849C0000AF78607B6803F00703FB600C4BDB6874
:1084AC00BB60BA684FF6FF031340BB60FB681A024F
:1084BC00BB68134343F0BF6343F40033BB60044A0F
:1084CC00BB68D36000BF1437BD4680BC704700BF8B
:1084DC0000ED00E080B400AF044BDB681B0A03F036
:1084EC0007031846BD4680BC704700BF00ED00E096
:1084FC0080B483B000AF0346FB7197F90730002BB3
:10850C000BDBFB7903F01F02064997F907305B0977
:10851C00012000FA02F241F8232000BF0C37BD46BF
:10852C0080BC704700E100E080B483B000AF03462C
:10853C003960FB7197F90730002B0ADB3B68DAB224
:10854C000C4997F907301201D2B20B4483F800237F
:10855C000AE03B68DAB20849FB7903F00F03043BED
:10856C001201D2B20B441A7600BF0C37BD4680BC48
:10857C00704700BF00E100E000ED00E080B489B07E
:10858C0000AFF860B9607A60FB6803F00703FB6129
:10859C00FB69C3F10703042B28BF0423BB61FB69F0
:1085AC000433062B02D9FB69033B00E000237B61FB
:1085BC004FF0FF32BB6902FA03F3DA43BB681A408F
:1085CC007B699A404FF0FF317B6901FA03F3D94381
:1085DC007B680B40134318462437BD4680BC70475C
:1085EC0080B400AFBFF34F8F00BF064BDB6803F4C2
:1085FC00E0620449044B1343CB60BFF34F8F00BFC1
:10860C0000BFFDE700ED00E00400FA0580B582B084
:10861C0000AF78607B68013BB3F1807F01D301230D
:10862C000FE00A4A7B68013B53600F214FF0FF308B
:10863C00FFF77AFF054B00229A60044B07221A6061
:10864C00002318460837BD4680BD00BF10E000E08F
:10865C0080B582B000AF78607868FFF717FF00BF75
:10866C000837BD4680BD80B586B000AF0346B96003
:10867C007A60FB7300237B61FFF72CFF78617A68CB
:10868C00B9687869FFF77AFF024697F90F301146FF
:10869C001846FFF749FF00BF1837BD4680BD80B5AF
:1086AC0082B000AF0346FB7197F907301846FFF70D
:1086BC001FFF00BF0837BD4680BD80B500AFFFF778
:1086CC008FFF80B582B000AF78607868FFF79EFFAF
:1086DC00034618460837BD4680BD000080B584B0FF
:1086EC0000AF78600023FB737B6893F82130022B7A
:1086FC0005D07B6804229A630123FB7351E07B68ED
:10870C001B681A687B681B6822F00E021A607B6873
:10871C001B681A687B681B6822F001021A607B6870
:10872C001B68224A934229D07B681B68204A9342DB
:10873C0022D07B681B681F4A93421AD07B681B6847
:10874C001D4A934212D07B681B681C4A93420AD084
:10875C007B681B681A4A934202D14FF480130EE0D7
:10876C004FF080730BE04FF4803308E04FF48053EC
:10877C0005E04FF4807302E0102300E00123114A5E
:10878C0053607B68012283F821207B68002283F8E8
:10879C0020207B685B6B002B03D07B685B6B78685D
:1087AC009847FB7B18461037BD4680BD0800024039
:1087BC001C000240300002404400024058000240BD
:1087CC006C0002400000024080B584B000AF7860BD
:1087DC007B68DB6B1B68FB607B681B681B68BB6082
:1087EC007B681B6C04229A40FB681340002B4FD013
:1087FC00BB6803F00403002B4AD07B681B681B6822
:10880C0003F02003002B07D17B681B681A687B6878
:10881C001B6822F004021A607B681B68664A93424C
:10882C0029D07B681B68654A934222D07B681B6801
:10883C00634A93421AD07B681B68624A934212D0F7
:10884C007B681B68604A93420AD07B681B685F4A4E
:10885C00934202D14FF480030EE04FF080630BE0A3
:10886C004FF4802308E04FF4804305E04FF480631D
:10887C0002E0402300E00423554A53607B68DB6A26
:10888C00002B00F094807B68DB6A786898478EE058
:10889C007B681B6C02229A40FB681340002B56D05D
:1088AC00BB6803F00203002B51D07B681B681B686C
:1088BC0003F02003002B0BD17B681B681A687B68C4
:1088CC001B6822F00A021A607B68012283F82120BF
:1088DC007B681B68384A934229D07B681B68374AEF
:1088EC00934222D07B681B68354A93421AD07B682E
:1088FC001B68344A934212D07B681B68324A9342FD
:10890C000AD07B681B68314A934202D14FF40013A2
:10891C000EE04FF000730BE04FF4003308E04FF41F
:10892C00005305E04FF4007302E0202300E0022323
:10893C00274A53607B68002283F820207B689B6A5F
:10894C00002B34D07B689B6A786898472FE07B6853
:10895C001B6C08229A40FB681340002B28D0BB6884
:10896C0003F00803002B23D07B681B681A687B6814
:10897C001B6822F00E021A607B681A6C7B68DB6B3A
:10898C00012101FA02F25A607B6801229A637B682A
:10899C00012283F821207B68002283F820207B6849
:1089AC001B6B002B04D07B681B6B7868984700BF4F
:1089BC0000BF1037BD4680BD080002401C000240BD
:1089CC003000024044000240580002406C0002405B
:1089DC000000024080B48BB000AF78603960002397
:1089EC007B6200233B6269E101227B6A02FA03F39A
:1089FC00FB613B681B68FA691340BB61BA69FB6990
:108A0C009A4240F058813B685B689A4A93425ED028
:108A1C00984A934275D8984A934258D0964A9342B2
:108A2C006FD8964A934252D0944A934269D8944A4A
:108A3C0093424CD0924A934263D8924A934246D086
:108A4C00904A93425DD8122B2AD8122B59D801A2E6
:108A5C0052F823F0DB8A0008B58A0008C78A0008A0
:108A6C00098B00080F8B00080F8B00080F8B000878
:108A7C000F8B00080F8B00080F8B00080F8B000862
:108A8C000F8B00080F8B00080F8B00080F8B000852
:108A9C000F8B00080F8B0008BD8A0008D18A0008D4
:108AAC00794A934213D02CE03B68DB683B6229E0A7
:108ABC003B68DB6804333B6224E03B68DB680833CB
:108ACC003B621FE03B68DB680C333B621AE03B689F
:108ADC009B68002B02D104233B6213E03B689B682C
:108AEC00012B05D108233B627B68FA691A6109E006
:108AFC0008233B627B68FA695A6103E000233B62FE
:108B0C0000E000BFBB69FF2B01D87B6801E07B68EC
:108B1C0004337B61BB69FF2B02D87B6A9B0002E0AC
:108B2C007B6A083B9B003B617B691A680F213B69A0
:108B3C0001FA03F3DB431A40396A3B6901FA03F388
:108B4C001A437B691A603B685B6803F08053002B07
:108B5C0000F0B1804D4B9B694C4A43F0010393618B
:108B6C004A4B9B6903F00103BB60BB68484A7B6AB4
:108B7C009B08023352F82330FB607B6A03F003033B
:108B8C009B000F2202FA03F3DB43FA681340FB60ED
:108B9C007B68404A934213D07B683F4A93420DD086
:108BAC007B683E4A934207D07B683D4A934201D191
:108BBC00032306E0042304E0022302E0012300E087
:108BCC0000237A6A02F0030292009340FA6813437E
:108BDC00FB602F497B6A9B080233FA6841F823201B
:108BEC003B685B6803F48033002B06D02D4B1A686E
:108BFC002C49BB6913430B6006E02A4B1A68BB690E
:108C0C00DB43284913400B603B685B6803F400337B
:108C1C00002B06D0234B5A682249BB6913434B6087
:108C2C0006E0204B5A68BB69DB431E4913404B607E
:108C3C003B685B6803F48013002B06D0194B9A68D1
:108C4C001849BB6913438B6006E0164B9A68BB69E5
:108C5C00DB43144913408B603B685B6803F40013DF
:108C6C00002B21D00F4BDA680E49BB691343CB6044
:108C7C0021E000BF00003210000031100000221073
:108C8C000000211000001210000011100010024012
:108C9C000000014000080140000C014000100140A0
:108CAC0000140140000401400B4BDA68BB69DB4344
:108CBC0009491340CB607B6A01337B623B681A68BD
:108CCC007B6A22FA03F3002B7FF48EAE00BF00BF49
:108CDC002C37BD4680BC70470004014080B483B083
:108CEC0000AF78600B467B8013467B707B78002B43
:108CFC0003D07A887B681A6103E07B881A047B684E
:108D0C001A6100BF0C37BD4680BC704780B586B079
:108D1C0000AF786000233B610023FB607B681B681D
:108D2C0003F00103002B7DD00023FB754F4BDB6957
:108D3C0003F08053002B0DD14C4BDB694B4A43F0B5
:108D4C008053D361494BDB6903F08053BB60BB6834
:108D5C000123FB75464B1B6803F48073002B18D161
:108D6C00434B1B68424A43F48073136001F07EF955
:108D7C00386108E001F07AF902463B69D31A642B9A
:108D8C0001D903236DE03A4B1B6803F48073002B6D
:108D9C00F0D0364B1B6A03F44073FB60FB68002B6E
:108DAC002ED07B685B6803F44073FA689A4227D034
:108DBC002E4B1B6A23F44073FB602E4B01221A606E
:108DCC002C4B00221A60294AFB681362FB6803F0E3
:108DDC000103002B14D001F049F938610AE001F0CD
:108DEC0045F902463B69D31A41F28832934201D9C4
:108DFC00032336E01D4B1B6A03F00203002BEED05D
:108E0C001A4B1B6A23F440727B685B681749134347
:108E1C000B62FB7D012B05D1144BDB69134A23F04C
:108E2C008053D3617B681B6803F00203002B08D0CE
:108E3C000E4B5B6823F440427B689B680B491343E1
:108E4C004B607B681B6803F01003002B08D0074BAA
:108E5C005B6823F480027B68DB68044913434B6036
:108E6C00002318461837BD4680BD00BF00100240D5
:108E7C00007000404004424280B586B000AF78607C
:108E8C007B68002B01D1012372E27B681B6803F025
:108E9C000103002B00F08780924B5B6803F00C03FE
:108EAC00042B0CD08F4B5B6803F00C03082B12D1F6
:108EBC008C4B5B6803F48033B3F5803F0BD1894B4B
:108ECC001B6803F40033002B6CD07B685B68002BB1
:108EDC0068D101234CE27B685B68B3F5803F06D117
:108EEC00804B1B687F4A43F4803313602EE07B6811
:108EFC005B68002B0CD17B4B1B687A4A23F48033C4
:108F0C001360784B1B68774A23F4802313601DE0B1
:108F1C007B685B68B3F5A02F0CD1724B1B68714A50
:108F2C0043F4802313606F4B1B686E4A43F4803309
:108F3C0013600BE06B4B1B686A4A23F4803313609D
:108F4C00684B1B68674A23F4802313607B685B685B
:108F5C00002B13D001F08AF8386108E001F086F894
:108F6C0002463B69D31A642B01D9032300E25D4B03
:108F7C001B6803F40033002BF0D014E001F076F8FA
:108F8C00386108E001F072F802463B69D31A642B91
:108F9C0001D90323ECE1534B1B6803F40033002B82
:108FAC00F0D100E000BF7B681B6803F00203002BCC
:108FBC0063D04C4B5B6803F00C03002B0BD0494B7C
:108FCC005B6803F00C03082B1CD1464B5B6803F465
:108FDC008033002B16D1434B1B6803F00203002B8C
:108FEC0005D07B681B69012B01D00123C0E13D4BEF
:108FFC001B6823F0F8027B685B69DB00394913437B
:10900C000B603AE07B681B69002B20D0364B0122A9
:10901C001A6001F02BF8386108E001F027F80246DD
:10902C003B69D31A022B01D90323A1E12D4B1B68F9
:10903C0003F00203002BF0D02A4B1B6823F0F8023C
:10904C007B685B69DB00274913430B6015E0264BFB
:10905C0000221A6001F00AF8386108E001F006F805
:10906C0002463B69D31A022B01D9032380E11D4B25
:10907C001B6803F00203002BF0D17B681B6803F024
:10908C000803002B3AD07B689B69002B19D0174B37
:10909C0001221A6000F0EAFF386108E000F0E6FFF8
:1090AC0002463B69D31A022B01D9032360E10D4B15
:1090BC005B6A03F00203002BF0D0012000F0D8FA19
:1090CC001CE00A4B00221A6000F0D0FF38610FE060
:1090DC0000F0CCFF02463B69D31A022B08D90323BC
:1090EC0046E100BF001002400000424280044242B0
:1090FC00924B5B6A03F00203002BE9D17B681B687F
:10910C0003F00403002B00F0A6800023FB758B4BAF
:10911C00DB6903F08053002B0DD1884BDB69874A48
:10912C0043F08053D361854BDB6903F08053BB6004
:10913C00BB680123FB75824B1B6803F48073002B07
:10914C0018D17F4B1B687E4A43F48073136000F088
:10915C008DFF386108E000F089FF02463B69D31AA5
:10916C00642B01D9032303E1754B1B6803F4807353
:10917C00002BF0D07B68DB68012B06D16F4B1B6A90
:10918C006E4A43F0010313622DE07B68DB68002B11
:10919C000CD16A4B1B6A694A23F001031362674BBB
:1091AC001B6A664A23F0040313621CE07B68DB68CD
:1091BC00052B0CD1614B1B6A604A43F0040313620C
:1091CC005E4B1B6A5D4A43F0010313620BE05B4B81
:1091DC001B6A5A4A23F001031362584B1B6A574A05
:1091EC0023F0040313627B68DB68002B15D000F0BE
:1091FC003DFF38610AE000F039FF02463B69D31AA3
:10920C0041F28832934201D90323B1E04B4B1B6AE4
:10921C0003F00203002BEED014E000F027FF3861BE
:10922C000AE000F023FF02463B69D31A41F2883270
:10923C00934201D903239BE0404B1B6A03F00203CA
:10924C00002BEED1FB7D012B05D13C4BDB693B4A5E
:10925C0023F08053D3617B68DB69002B00F087809F
:10926C00364B5B6803F00C03082B61D07B68DB6921
:10927C00022B46D1334B00221A6000F0F7FE386106
:10928C0008E000F0F3FE02463B69D31A022B01D929
:10929C0003236DE0294B1B6803F00073002BF0D106
:1092AC007B681B6AB3F5803F08D1244B5B6823F4C1
:1092BC0000327B689B68214913434B601F4B5B68F2
:1092CC0023F474127B68196A7B685B6A0B431B4935
:1092DC0013434B601B4B01221A6000F0C7FE386130
:1092EC0008E000F0C3FE02463B69D31A022B01D9F9
:1092FC0003233DE0114B1B6803F00073002BF0D0EF
:10930C0035E0104B00221A6000F0B0FE386108E026
:10931C0000F0ACFE02463B69D31A022B01D90323A1
:10932C0026E0064B1B6803F00073002BF0D11EE007
:10933C007B68DB69012B07D1012319E00010024087
:10934C0000700040600042420B4B5B68FB60FB68A6
:10935C0003F480327B681B6A9A4206D1FB6803F4E3
:10936C0070127B685B6A9A4201D0012300E00023F3
:10937C0018461837BD4680BD0010024080B584B039
:10938C0000AF786039607B68002B01D10123D0E0FD
:10939C006A4B1B6803F007033A689A4210D9674B73
:1093AC001B6823F0070265493B6813430B60634B52
:1093BC001B6803F007033A689A4201D00123B8E016
:1093CC007B681B6803F00203002B20D07B681B68B2
:1093DC0003F00403002B05D0594B5B68584A43F447
:1093EC00E06353607B681B6803F00803002B05D017
:1093FC00534B5B68524A43F460535360504B5B6869
:10940C0023F0F0027B689B684D4913434B607B68EB
:10941C001B6803F00103002B40D07B685B68012BB9
:10942C0007D1474B1B6803F40033002B15D10123E4
:10943C007FE07B685B68022B07D1414B1B6803F014
:10944C000073002B09D1012373E03D4B1B6803F023
:10945C000203002B01D101236BE0394B5B6823F035
:10946C0003027B685B68364913434B6000F0FEFDDA
:10947C00F8600AE000F0FAFD0246FB68D31A41F2EC
:10948C008832934201D9032353E02D4B5B6803F0E0
:10949C000C027B685B689B009A42EBD1274B1B68E4
:1094AC0003F007033A689A4210D2244B1B6823F04E
:1094BC00070222493B6813430B60204B1B6803F0E7
:1094CC0007033A689A4201D0012332E07B681B689B
:1094DC0003F00403002B08D0194B5B6823F4E06203
:1094EC007B68DB68164913434B607B681B6803F091
:1094FC000803002B09D0124B5B6823F460527B6885
:10950C001B69DB000E4913434B6000F021F8024647
:10951C000B4B5B681B0903F00F030A49CB5C22FA67
:10952C0003F3094A1360094B1B68184600F05CFDF5
:10953C00002318461037BD4680BD00BF00200240F6
:10954C00001002402CAE000804020020080200208B
:10955C0090B48AB000AF294B3C1D0FCB84E80F00B0
:10956C0040F201233B800023FB610023BB610023FD
:10957C007B6200237B6100233B62214B5B68FB61B8
:10958C00FB6903F00C03042B02D0082B03D02BE057
:10959C001C4B3B622BE0FB699B0C03F00F03283345
:1095AC003B4413F8243C7B61FB6903F48033002BB0
:1095BC0012D0134B5B685B0C03F0010328333B4464
:1095CC0013F8283CBB617B690E4A03FB02F2BB69B2
:1095DC00B2FBF3F37B6204E07B690B4A02FB03F3FF
:1095EC007B627B6A3B6202E0064B3B6200BF3B6ADC
:1095FC0018462837BD4690BC704700BF04AE000823
:10960C000010024000127A0000093D0080B400AF47
:10961C00024B1B681846BD4680BC704704020020F4
:10962C0080B500AFFFF7F2FF0246054B5B681B0AE3
:10963C0003F007030349CB5C22FA03F3184680BD01
:10964C00001002403CAE000880B500AFFFF7DEFF13
:10965C000246054B5B68DB0A03F007030349CB5C4E
:10966C0022FA03F3184680BD001002403CAE0008FD
:10967C0080B485B000AF78600A4B1B680A4AA2FB25
:10968C0003235B0A7A6802FB03F3FB6000BFFB68F1
:10969C005A1EFA60002BF9D100BF00BF1437BD462B
:1096AC0080BC704704020020D34D621080B582B09C
:1096BC0000AF78607B68002B01D101233FE07B6811
:1096CC0093F83930DBB2002B06D17B68002283F88B
:1096DC003820786800F0DEFD7B68242283F839207E
:1096EC007B681B68DA687B681B6822F40052DA60BE
:1096FC00786800F08DFB7B681B681A697B681B68B7
:10970C0022F490421A617B681B685A697B681B685B
:10971C0022F02A025A617B681B68DA687B681B6836
:10972C0042F40052DA607B680022DA637B68202204
:10973C0083F839207B68202283F83A2000231846CE
:10974C000837BD4680BD80B58AB002AFF860B960FD
:10975C003B601346FB8000237B61FB6893F8393038
:10976C00DBB2202B7CD1BB68002B02D0FB88002BFA
:10977C0001D1012375E0FB6893F83830012B01D13E
:10978C0002236EE0FB68012283F83820FB6800227C
:10979C00DA63FB68212283F8392000F067FC7861DA
:1097AC00FB68FA889A84FB68FA88DA84FB689B6801
:1097BC00B3F5805F08D1FB681B69002B04D1002333
:1097CC00FB61BB68BB6103E0BB68FB610023BB6151
:1097DC00FB68002283F838202AE03B6800937B6901
:1097EC0000228021F86800F0B0F90346002B01D06C
:1097FC00032336E0FB69002B0BD1BB691B881A468F
:10980C00FB681B68C2F308025A60BB690233BB6178
:10981C0007E0FB691A78FB681B685A60FB69013327
:10982C00FB61FB68DB8C9BB2013B9AB2FB68DA8470
:10983C00FB68DB8C9BB2002BCFD13B6800937B6920
:10984C0000224021F86800F080F90346002B01D07B
:10985C00032306E0FB68202283F83920002300E074
:10986C00022318462037BD4680BD80B485B000AFBA
:10987C00F860B9601346FB80FB6893F83A30DBB2B2
:10988C00202B40D1BB68002B02D0FB88002B01D1D0
:10989C00012339E0FB6893F83830012B01D1022306
:1098AC0032E0FB68012283F83820FB68BA689A62C0
:1098BC00FB68FA889A85FB68FA88DA85FB680022CF
:1098CC00DA63FB68222283F83A20FB68002283F8D3
:1098DC003820FB681B68DA68FB681B6842F48072EE
:1098EC00DA60FB681B685A69FB681B6842F001026E
:1098FC005A61FB681B68DA68FB681B6842F020023F
:10990C00DA60002300E0022318461437BD4680BC01
:10991C007047000080B588B000AF78607B681B682A
:10992C001B68FB617B681B68DB68BB617B681B6821
:10993C005B697B6100233B610023FB60FB6903F0E7
:10994C000F033B613B69002B0DD1FB6903F0200336
:10995C00002B08D0BB6903F02003002B03D07868E0
:10996C0000F0D5F9D0E03B69002B00F0B0807B69AA
:10997C0003F00103002B05D1BB6903F49073002B9A
:10998C0000F0A580FB6903F00103002B0AD0BB6932
:10999C0003F48073002B05D07B68DB6B43F0010272
:1099AC007B68DA63FB6903F00403002B0AD07B6944
:1099BC0003F00103002B05D07B68DB6B43F0020244
:1099CC007B68DA63FB6903F00203002B0AD07B6926
:1099DC0003F00103002B05D07B68DB6B43F0040222
:1099EC007B68DA63FB6903F00803002B0FD0BB69BB
:1099FC0003F02003002B04D17B6903F00103002B3F
:109A0C0005D07B68DB6B43F008027B68DA637B680C
:109A1C00DB6B002B77D0FB6903F02003002B07D006
:109A2C00BB6903F02003002B02D0786800F06FF9BB
:109A3C007B681B685B6903F04003002B14BF012398
:109A4C000023DBB2FB607B68DB6B03F00803002BAD
:109A5C0002D1FB68002B31D0786800F0C0F87B682D
:109A6C001B685B6903F04003002B23D07B681B68E9
:109A7C005A697B681B6822F040025A617B685B6BF9
:109A8C00002B13D07B685B6B214A5A637B685B6B42
:109A9C001846FEF723FE0346002B16D07B685B6B43
:109AAC005B6B7A68526B104698470EE0786800F052
:109ABC0043F80AE0786800F03FF806E0786800F0B8
:109ACC003BF87B680022DA631DE000BF1BE0FB69FA
:109ADC0003F08003002B08D0BB6903F08003002B3C
:109AEC0003D0786800F0ACF80EE0FB6903F040039B
:109AFC00002B09D0BB6903F04003002B04D078681D
:109B0C0000F0EDF800E000BF2037BD4680BD00BF7F
:109B1C00259C000880B483B000AF786000BF0C3780
:109B2C00BD4680BC704780B483B000AF786000BF86
:109B3C000C37BD4680BC704780B483B000AF7860F2
:109B4C0000BF0C37BD4680BC704780B584B000AFF9
:109B5C00F860B9603B601346FB712CE0BB69B3F154
:109B6C00FF3F28D0BB69002B07D000F07FFA0246DC
:109B7C003B68D31ABA699A421DD2FB681B68DA6833
:109B8C00FB681B6822F4D072DA60FB681B685A69A8
:109B9C00FB681B6822F001025A61FB68202283F8E3
:109BAC003920FB68202283F83A20FB68002283F8D6
:109BBC00382003230FE0FB681B681A68BB6813404E
:109BCC00BA689A420CBF01230023DBB21A46FB7918
:109BDC009A42C3D0002318461037BD4680BD80B4CE
:109BEC0083B000AF78607B681B68DA687B681B68A1
:109BFC0022F49072DA607B681B685A697B681B6878
:109C0C0022F001025A617B68202283F83A2000BFBF
:109C1C000C37BD4680BC704780B584B000AF78600F
:109C2C007B685B6AFB60FB680022DA85FB680022BC
:109C3C00DA84F868FFF780FF00BF1037BD4680BD9F
:109C4C0080B485B000AF78607B6893F83930DBB2B4
:109C5C00212B3ED17B689B68B3F5805F14D17B6868
:109C6C001B69002B10D17B681B6AFB60FB681B888F
:109C7C001A467B681B68C2F308025A607B681B6A31
:109C8C009A1C7B681A6208E07B681B6A591C7A680C
:109C9C0011621A787B681B685A607B68DB8C9BB2FC
:109CAC00013B9BB27A681946D184002B0FD17B689B
:109CBC001B68DA687B681B6822F08002DA607B68BC
:109CCC001B68DA687B681B6842F04002DA6000238C
:109CDC0000E0022318461437BD4680BC704780B59F
:109CEC0082B000AF78607B681B68DA687B681B68A1
:109CFC0022F04002DA607B68202283F839207868F1
:109D0C00FFF708FF002318460837BD4680BD80B515
:109D1C0084B000AF78607B6893F83A30DBB2222BCA
:109D2C0070D17B689B68B3F5805F17D17B681B692A
:109D3C00002B13D10023FB607B689B6ABB607B68A4
:109D4C001B685B689BB2C3F308039AB2BB681A80AA
:109D5C007B689B6A9A1C7B689A6226E07B689B6A8C
:109D6C00FB600023BB607B689B68B3F5805F07D00A
:109D7C007B689B68002B0AD17B681B69002B06D182
:109D8C007B681B685B68DAB2FB681A7008E07B685A
:109D9C001B685B68DBB203F07F03DAB2FB681A70F6
:109DAC007B689B6A5A1C7B689A627B68DB8D9BB2D2
:109DBC00013B9BB27A681946D185002B20D17B6878
:109DCC001B68DA687B681B6822F02002DA607B680B
:109DDC001B68DA687B681B6822F48072DA607B6827
:109DEC001B685A697B681B6822F001025A617B6808
:109DFC00202283F83A207868FFF795FE002302E0D2
:109E0C00002300E0022318461037BD4680BD000039
:109E1C0080B584B000AF78607B681B681B6923F445
:109E2C0040517B68DA687B681B680A431A617B685F
:109E3C009A687B681B691A437B685B691343BB6038
:109E4C007B681B68DB6823F4B05323F00C037A683F
:109E5C001268B9680B43D3607B681B685B6923F499
:109E6C0040717B689A697B681B680A435A617B68FE
:109E7C001B682C4A934203D1FFF7E6FBF86002E023
:109E8C00FFF7CEFBF860FA6813469B0013449A0068
:109E9C001A447B685B689B00B2FBF3F3224AA2FB7B
:109EAC0003235B091901FA6813469B0013449A00BB
:109EBC001A447B685B689B00B2FBF3F21A4BA3FB62
:109ECC0002035B09642000FB03F3D31A1B0132333A
:109EDC00154AA2FB03235B0903F0F0031944FA684B
:109EEC0013469B0013449A001A447B685B689B00E2
:109EFC00B2FBF3F20C4BA3FB02035B09642000FBE7
:109F0C0003F3D31A1B013233074AA2FB03235B0969
:109F1C0003F00F027B681B680A449A6000BF10377D
:109F2C00BD4680BD003801401F85EB5180B584B023
:109F3C0000AF78607B68002B01D101232BE07B689C
:109F4C001B684CF6CC421A607B681B6845F2555274
:109F5C001A607B681B687A6852685A607B681B6859
:109F6C007A6892689A6000F081F8F86008E000F076
:109F7C007DF80246FB68D31A262B01D903230AE08D
:109F8C007B681B68DB68002BF1D17B681B684AF689
:109F9C00AA221A60002318461037BD4680BD80B433
:109FAC0083B000AF78607B681B684AF6AA221A60FF
:109FBC00002318460C37BD4680BC704780B500AFF7
:109FCC00084B1B68074A43F0100313600320FEF78D
:109FDC003FFB002000F008F8FEF726FA0023184695
:109FEC0080BD00BF0020024080B582B000AF786019
:109FFC00124B1A68124B1B7819464FF47A73B3FB49
:10A00C00F1F3B2FBF3F31846FEF75BFB0346002BB0
:10A01C0001D001230EE07B680F2B0AD8002279684F
:10A02C004FF0FF30FEF71FFB064A7B6813600023DE
:10A03C0000E0012318460837BD4680BD040200200D
:10A04C000C0200200802002080B400AF054B1B78E6
:10A05C001A46054B1B681344034A136000BFBD46E8
:10A06C0080BC70470C020020E403002080B400AFD9
:10A07C00024B1B681846BD4680BC7047E4030020A9
:10A08C0080B584B000AF7860FFF7F0FFB8607B68F4
:10A09C00FB60FB68B3F1FF3F05D00A4B1B781A46F7
:10A0AC00FB681344FB6000BFFFF7E0FF0246BB6890
:10A0BC00D31AFA689A42F7D800BF00BF1037BD46D2
:10A0CC0080BD00BF0C02002080B500AF00F052F83C
:10A0DC0000F080F800F0AEF800F002F800BF80BD90
:10A0EC0080B586B000AF07F1080300221A605A60F1
:10A0FC009A60DA601C4B9B691B4A43F00403936122
:10A10C00194B9B6903F004037B607B68164B9B69BE
:10A11C00154A43F010039361134B9B6903F0100332
:10A12C003B603B6800224FF480711048FEF7D6FD6F
:10A13C004FF48073BB600123FB6000233B6102235F
:10A14C007B6107F1080319460848FEF743FC4FF4FE
:10A15C000053BB6007F1080319460548FEF73AFCAB
:10A16C0000BF1837BD4680BD0010024000080140FA
:10A17C000010014080B500AF134B144A1A60124B0B
:10A18C004FF4E1325A60104B00229A600E4B0022C1
:10A19C00DA600D4B00221A610B4B0C225A610A4BF0
:10A1AC0000229A61084B0022DA610748FFF77EFA19
:10A1BC000346002B01D0FEF7C9F80549024800F010
:10A1CC0053F900BF80BD00BFE803002000480040E9
:10A1DC006C04002080B500AF134B144A1A60124B6C
:10A1EC004FF416525A60104B00229A600E4B00220C
:10A1FC00DA600D4B00221A610B4B0C225A610A4B90
:10A20C0000229A61084B0022DA610748FFF74EFAE8
:10A21C000346002B01D0FEF799F80549024800F0DF
:10A22C0023F900BF80BD00BF780400200038014036
:10A23C00FC04002080B500AF134B144A1A60124B7B
:10A24C004FF4E1325A60104B00229A600E4B002200
:10A25C00DA600D4B00221A610B4B0C225A610A4B2F
:10A26C0000229A61084B0022DA610748FFF71EFAB8
:10A27C000346002B01D0FEF769F80549024800F0AF
:10A28C00F3F800BF80BD00BF08050020004400406B
:10A29C008C05002080B58CB000AF786007F12003EE
:10A2AC0000221A605A609A60DA607B681B685F4A09
:10A2BC0093423AD15E4B9B695D4A43F48043936170
:10A2CC005B4B9B6903F48043FB61FB69584B9B69B7
:10A2DC00574A43F004039361554B9B6903F0040305
:10A2EC00BB61BB694FF400733B6202237B620323A7
:10A2FC00FB6207F1200319464E48FEF76BFB4FF447
:10A30C0080633B6200237B620023BB6207F1200366
:10A31C0019464848FEF75EFB002205212520FEF772
:10A32C00A2F92520FEF7BBF97CE07B681B68424A4A
:10A33C0093423AD13E4BDB693D4A43F48023D361CF
:10A34C003B4BDB6903F480237B617B69384B9B6956
:10A35C00374A43F008039361354B9B6903F00803BC
:10A36C003B613B694FF480633B6202237B620323B6
:10A37C00FB6207F1200319463048FEF72BFB4FF424
:10A38C0000633B6200237B620023BB6207F1200366
:10A39C0019462A48FEF71EFB002200212720FEF753
:10A3AC0062F92720FEF77BF93CE07B681B68244AA6
:10A3BC00934237D11E4BDB691D4A43F40033D36102
:10A3CC001B4BDB6903F40033FB60FB68184B9B6988
:10A3DC00174A43F004039361154B9B6903F0040384
:10A3EC00BB60BB6804233B6202237B620323FB62DA
:10A3FC0007F1200319460F48FEF7ECFA08233B62DD
:10A40C0000237B620023BB6207F120031946094835
:10A41C00FEF7E0FA002201212620FEF724F926207F
:10A42C00FEF73DF900BF3037BD4680BD0038014016
:10A43C00001002400008014000480040000C0140A0
:10A44C000044004080B584B000AFF860B9607A6019
:10A45C003B60F8687B689AB23B68B968FFF773F9A0
:10A46C0000BF1037BD4680BD80B582B000AF7860AC
:10A47C0039607B68012239681846FFF7F6F93B68AA
:10A48C0093F9003018460837BD4680BD80B483B0C0
:10A49C0000AF03463960FB7197F90730002B0ADBDC
:10A4AC003B68DAB20C4997F907301201D2B20B446F
:10A4BC0083F800230AE03B68DAB20849FB7903F021
:10A4CC000F03043B1201D2B20B441A7600BF0C37B7
:10A4DC00BD4680BC704700BF00E100E000ED00E02D
:10A4EC0080B582B000AF78607B68013BB3F1807FB0
:10A4FC0001D301230FE00A4A7B68013B53600F2113
:10A50C004FF0FF30FFF7C2FF054B00229A60044B5F
:10A51C0007221A60002318460837BD4680BD00BFCD
:10A52C0010E000E080B500AF00F01CF800F076F809
:10A53C0000F002F800BF80BD80B500AF074B084AA1
:10A54C001A60064B06225A60044B4FF49C729A60B8
:10A55C000248FFF7EBFC00BF80BD00BFDC0500200C
:10A56C000030004080B594B000AF07F128032822DA
:10A57C000021184600F0E8FB07F1140300221A60D2
:10A58C005A609A60DA601A613B1D00221A605A60A8
:10A59C009A60DA600923BB624FF48033FB620123BB
:10A5AC003B6400233B630123BB6302237B644FF4B6
:10A5BC008033BB644FF4E013FB6407F128031846A7
:10A5CC00FEF75AFC0346002B01D0FDF7BFFE0F230C
:10A5DC007B610223BB610023FB614FF480633B6210
:10A5EC0000237B6207F1140302211846FEF7C6FE16
:10A5FC000346002B01D0FDF7A9FE02237B6000234C
:10A60C00FB603B1D1846FEF781FB0346002B01D077
:10A61C00FDF79CFE00BF5037BD4680BD80B500AF36
:10A62C00054B1B68054AA2FB03239B091846FFF741
:10A63C0057FF00BF80BD00BF04020020D34D621045
:10A64C00002103E00B4B5B58435004310A480B4B81
:10A65C0042189A42F6D30A4A02E0002342F8043B1D
:10A66C00084B9A42F9D3FDF7ADFE00F08BFB00F0DE
:10A67C0011FA70474CAE0008000000206402002064
:10A68C006402002044090020FEE7000090B5ADF5FF
:10A69C000D7D02AF07F50A74A4F50774206007F569
:10A6AC000A70A0F50870016007F50A71A1F509712F
:10A6BC000A6007F50A72A2F50A7213608C4B1A68CD
:10A6CC008C4B13448C4A136007F50A73A3F507737C
:10A6DC001B68102B11D1894B186807F50A73A3F569
:10A6EC00077100230093002300220968FCF71FFE6A
:10A6FC00C820FFF7C5FCFDF7E0FF07F50A73A3F5CB
:10A70C0007731B680B2B0CD17C4B186807F50A736D
:10A71C00A3F5077100230093002300220968FCF7BE
:10A72C0006FE07F50A73A3F507731B68122B0CD1F1
:10A73C00724B186807F50A73A3F50771032300938E
:10A74C006F4B00220968FCF7F2FD07F50A73A3F5BD
:10A75C0007731B680A2B40F0C08007F50A73A3F53A
:10A76C0008731B681B7887F81F3207F50A73A3F56B
:10A77C0008731B6801331B7887F81E3207F50A73C0
:10A78C00A3F508731B685B88A7F81C3207F50A73DE
:10A79C00A3F508731B689B88A7F81A32002387F867
:10A7AC00273207F50A73A3F5057300221A600433E8
:10A7BC0040F202220021184600F0C6FA0023C7F826
:10A7CC00203216E0D7F8203207F50A72A2F508728B
:10A7DC0012681344197807F50A73A3F50572D7F8B4
:10A7EC00203213440A461A70D7F820320133C7F8C6
:10A7FC002032D7F82032052BE4DD97F81F32042BDA
:10A80C0027D1404B1868B7F81A42B7F81C2297F8B2
:10A81C001E1207F11403063300932346FDF764F868
:10A82C00034687F8273297F92732002B40D0334B59
:10A83C00186897F9272207F1140307F50A71A1F597
:10A84C000771062400940968FCF771FD4FF0FF3383
:10A85C0048E097F81F32032B27D12A4B1868B7F81A
:10A86C001A42B7F81C2297F81E1207F1140306338C
:10A87C0000932346FDF759F8034687F8273297F9DA
:10A88C002732002B14D01D4B186897F9272207F19B
:10A89C00140307F50A71A1F50771062400940968E1
:10A8AC00FCF745FD4FF0FF331CE04FF0FF3319E090
:10A8BC00124B186897F92722B7F81A3203335B004A
:10A8CC0007F1140407F50A71A1F5077100932346EB
:10A8DC000968FCF72CFD002304E007F50A73A3F5C7
:10A8EC0009731B68184607F50B77BD4690BD00BF72
:10A8FC00F0050020002E9302F4050020E80500204E
:10A90C0010020020EC05002080B582B000AF78600A
:10A91C0039603B689AB24FF4FA7379680348FEF7D2
:10A92C0012FF3B6818460837BD4680BDE80300207F
:10A93C0080B500AFFCF746FC07490120FCF77AFC18
:10A94C000346064A1360054B1B680022044918464F
:10A95C00FCF7CCFC00BF80BD15A90008E805002061
:10A96C0099A6000880B489B000AFF860B9607A602D
:10A97C003B60304B1A687B6813447B614EE00023CC
:10A98C00FB612D4B1B889AB22C4B1B889BB29A42B5
:10A99C0008D9294B1B889BB21A46284B1B889BB2A3
:10A9AC00D31AFB61244B1B889AB2244B1B889BB295
:10A9BC009A4209D2204B1B889BB203F500731F4AA5
:10A9CC00128892B29B1AFB61FA69BB689A4225DB2A
:10A9DC000023BB611CE0194B1B889BB21946BB6959
:10A9EC00FA681344164A525C1A70144B1B889BB2BB
:10A9FC0001339AB2114B1A80104B1B889BB2B3F5E2
:10AA0C00007F02D30D4B00221A80BB690133BB615E
:10AA1C00BA69BB689A42DEDBBB6805E0054B1B6874
:10AA2C007A699A42ABD8002318462437BD4680BCBD
:10AA3C00704700BFF0050020F8070020FA0700203F
:10AA4C00F805002080B584B000AFF860B9607A607A
:10AA5C003B6001224FF480710C48FEF73FF9012056
:10AA6C00FFF70EFB7B68BA68F9680948FFF7EAFC48
:10AA7C000120FFF705FB00224FF480710348FEF71D
:10AA8C002DF9BB6818461037BD4680BD0008014043
:10AA9C007804002080B500AF72B600BFFFF748FF06
:10AAAC00002214491448FCF7D7FE0346134A1360DE
:10AABC00134B1A68134B1344134A136062B600BF4E
:10AACC006423142211491248FEF73DFE114B1B68FA
:10AADC001846FCF78AFD0A4B1A680B4B1B689A4206
:10AAEC0003D34FF4E040FCF777FB0B48FFF757FA22
:10AAFC00ECE700BF71A9000851AA0008EC05002082
:10AB0C00F0050020002E9302F405002014AE00087E
:10AB1C0008050020E8050020DC05002080B500AF0A
:10AB2C00FFF792FA034B1B680133024A136000BF14
:10AB3C0080BD00BFF005002080B500AF1048FEF7C7
:10AB4C00E9FE10490E48FFF78FFC0F4B1B889BB298
:10AB5C001A460B4B93F884100C4B99540A4B1B88D8
:10AB6C009BB201339AB2084B1A80074B1B889BB2DD
:10AB7C00B3F5007F02D3044B00221A8000BF80BDC6
:10AB8C0078040020FC040020F8070020F8050020C1
:10AB9C0080B500AF0748FEF7BDFE07490548FFF733
:10ABAC0063FC064B1B681A4601210348FCF7EDFDBC
:10ABBC0000BF80BDE80300206C040020E8050020E5
:10ABCC0080B500AF0448FEF7A5FE04490248FFF724
:10ABDC004BFC00BF80BD00BF080500208C05002089
:10ABEC00024B0146186800F023B800BF6002002039
:10ABFC0070B50E4E0C463168054611B900F0ACF834
:10AC0C0030602146284600F0A7F8431C0AD0C41C2B
:10AC1C0024F00304A04207D0211A284600F09CF827
:10AC2C00013001D14FF0FF34204670BD00080020E8
:10AC3C002DE9F843CD1C25F0030508350C2D38BF44
:10AC4C000C25002D074601DBA94205D90C23002653
:10AC5C003B603046BDE8F883DFF8D08000F068F840
:10AC6C00D8F800301C465CBB29463846FFF7C0FFBD
:10AC7C00431C044655D1D8F800402646002E45D139
:10AC8C00002C48D023683146384604EB030900F009
:10AC9C0063F881453FD1216838466D1A2946FFF784
:10ACAC00A7FF013037D023682B442360D8F800303D
:10ACBC00002B38D05A68A2422BD100225A600FE0E8
:10ACCC002268521B1FD40B2A17D96119A342256085
:10ACDC0018BF5960636808BFC8F8001062514B6018
:10ACEC00384604F10B0600F029F826F00706231D60
:10ACFC00F21AAED09B1BA350ABE7A3426268DDD126
:10AD0C00C8F80020ECE723466468ACE73446766864
:10AD1C00B4E71346CCE70C2338463B6000F00EF842
:10AD2C0097E72560DCE75B60FFDE00BFFC070020D7
:10AD3C00014800F04BB800BF40090020014800F06A
:10AD4C0046B800BF4009002003460244934200D19C
:10AD5C00704703F8011BF9E738B50023054D04468D
:10AD6C0008462B60FDF7F8FA431C02D12B6803B19F
:10AD7C00236038BD3C090020014B1868704700BFA8
:10AD8C006002002070B500260C4D0D4C641BA41005
:10AD9C00A64209D100F01CF800260A4D0A4C641B8F
:10ADAC00A410A64205D170BD55F8043B9847013656
:10ADBC00EEE755F8043B98470136F2E744AE00083D
:10ADCC0044AE000844AE000848AE00087047704717
:10ADDC00F8B500BFF8BC08BC9E467047F8B500BF7C
:08ADEC00F8BC08BC9E4670474C
:10ADF40001000000117800083B7800088002002060
:10AE040002030405060708090A0B0C0D0E0F1010A7
:10AE14004A756D7020746F206D61696E2061707069
:10AE24002121210A000000000000000000000000B1
:10AE340001020304060708090000000001020304DC
:04AE44003171000860
:04AE48000D71000880
:10AE4C0000002110422063308440A550C660E7709A
:10AE5C00088129914AA16BB18CC1ADD1CEE1EFF142
:10AE6C003112100273325222B5529442F772D662EA
:10AE7C00399318837BB35AA3BDD39CC3FFF3DEE392
:10AE8C006224433420040114E664C774A44485543A
:10AE9C006AA54BB528850995EEE5CFF5ACC58DD5E2
:10AEAC005336722611163006D776F6669556B4468A
:10AEBC005BB77AA719973887DFF7FEE79DD7BCC732
:10AECC00C448E5588668A7784008611802282338DA
:10AEDC00CCC9EDD98EE9AFF9488969990AA92BB982
:10AEEC00F55AD44AB77A966A711A500A333A122A2A
:10AEFC00FDDBDCCBBFFB9EEB799B588B3BBB1AABD2
:10AF0C00A66C877CE44CC55C222C033C600C411C79
:10AF1C00AEED8FFDECCDCDDD2AAD0BBD688D499D21
:10AF2C00977EB66ED55EF44E133E322E511E700EC9
:10AF3C009FFFBEEFDDDFFCCF1BBF3AAF599F788F71
:10AF4C008891A981CAB1EBA10CD12DC14EF16FE151
:10AF5C008010A100C230E320045025404670676089
:10AF6C00B9839893FBA3DAB33DC31CD37FE35EF3A1
:10AF7C00B1029012F322D2323542145277625672D9
:10AF8C00EAB5CBA5A89589856EF54FE52CD50DC5F1
:10AF9C00E234C324A0148104667447642454054429
:10AFAC00DBA7FAB79987B8975FE77EF71DC73CD741
:10AFBC00D326F2369106B016576676761546345679
:10AFCC004CD96DC90EF92FE9C899E9898AB9ABA991
:10AFDC004458654806782768C018E1088238A328C9
:10AFEC007DCB5CDB3FEB1EFBF98BD89BBBAB9ABBE1
:10AFFC00754A545A376A167AF10AD01AB32A923A19
:10B00C002EFD0FED6CDD4DCDAABD8BADE89DC98D30
:10B01C00267C076C645C454CA23C832CE01CC10C68
:10B02C001FEF3EFF5DCF7CDF9BAFBABFD98FF89F80
:10B03C00176E367E554E745E932EB23ED10EF01EB8
:10B04C00000000200024F4001000000001000000AB
:10B05C000200010000000000040800206C08002021
:10B06C00D4080020000000000000000000000000D8
:10B07C0000000000000000000000000000000000C4
:10B08C0000000000000000000000000000000000B4
:10B09C0000000000000000000000000000000000A4
:04B0AC00140200206A
:040000050800A64DFC
:00000001FF
