:1050000000400020EDAD000049AE0000A9AA00005C
:105010000000000000000000000000000000000090
:1050200000000000000000000000000049AE000089
:10503000000000000000000049AE000049AE000082
:1050400049AE000049AE000049AE000049AE000084
:1050500049AE000049AE000049AE000049AE000074
:1050600049AE000049AE000049AE000049AE000064
:1050700049AE000049AE000049AE000049AE000054
:1050800049AE000049AE000049AE000049AE000044
:1050900049AE000049AE000049AE000049AE000034
:1050A000DD81000049AE000049AE000049AE0000BD
:1050B00049AE000049AE000049AE000049AE000014
:1050C00065810000859D00009581000049AE0000CB
:1050D00049AE000049AE000049AE000049AE0000F4
:1050E00049AE000049AE000049AE000049AE0000E4
:1050F00049AE000049AE000049AE000049AE0000D4
:10510000C17D000049AE000049AE000049AE00007C
:1051100049AE000049AE000049AE000049AE0000B3
:1051200049AE000049AE000049AE000049AE0000A3
:1051300049AE000049AE000049AE000049AE000093
:1051400010B5054C237833B9044B13B1044800E083
:1051500000BF0123237010BDD00A00200000000012
:10516000C4C80000074B10B51BB10749074800E051
:1051700000BF0748036803B910BD064B002BFBD0E6
:105180009847F9E700000000D40A0020C4C80000D6
:10519000CC0A002000000000164B002B00D1144B5D
:1051A0009D46402292029A1A924600218B460F4653
:1051B0001348144A121A06F0FCFA0F4B002B00D0C9
:1051C00098470E4B002B00D0984700200021040088
:1051D0000D000D48002802D00C4800E000BF06F08A
:1051E000B1FA2000290004F03FFD06F097FAC0460E
:1051F0000000080000400020000000000000000047
:10520000D00A0020541D0020000000000000000013
:1052100070B504000D00160068B1681C6060A660DF
:1052200000236361013BE3602361310006F066FA0D
:10523000206028B170BD182006F0A8FA0400ECE741
:10524000014806F0CDFBF5E714C1000070B504007D
:10525000C36801334568B3FBF5F255435D1B036931
:105260009D420ED0C068A368584323689C466044A2
:10527000A26806F095FAE560636901336361012075
:1052800070BD0020FCE700000022024B1A700120D4
:105290007047C046ED0A00200122034B1A70034BF1
:1052A000187001207047C046ED0A0020EC0A00206B
:1052B0000200054B187830B1044B1B7813700022A4
:1052C000014B1A7001207047ED0A0020EC0A002003
:1052D00010B5024B1B68984710BDC046100E002049
:1052E00010B50A78024B1A70024B1B68984710BD24
:1052F000F40A0020180E002010B50C00214B1A688B
:1053000041F288335A43204B5A6000229A6005329A
:105310001A601D4B1B68DB03FBD500221A4B1A6079
:1053200020B31A4B1868036813B19B680021984793
:1053300014B3164B1868036813B19B680121984792
:10534000134B1B6898470F4B1A6841F288335A4336
:105350000D4B5A6000229A6005321A600A4B1B6896
:10536000DB03FBD50022084B1A6010BD094B1868FF
:1053700003689B699847DBE7064B18680368DB699D
:105380009847E0E7580A002010E000E0040D0020F4
:10539000100E0020080D002010B5074C07492068AA
:1053A00000F0A8FF0649206800F0A6FF2068036807
:1053B0001B699847012010BD080D0020E152000034
:1053C000D152000070B506000D00002105E0013348
:1053D00042F20F729342FAD92100A9420AD2064B37
:1053E000186803681B684C1CA4B271180122984706
:1053F0000023EDE7012070BD080D0020024B1B7853
:105400005BB2037001207047F40A0020024A13685F
:10541000013313607047C046F00A0020034A136846
:10542000013B136003B962B67047C046F00A002022
:1054300010B5074A138801339BB21380054A1288BE
:10544000934200D210BD044B1B689847FAE7C04650
:10545000F60A0020F80A0020140E002070B505009E
:10546000064C00220649206800F006FF2068036809
:10547000DB689847034B1D80012070BD0C0D002098
:1054800031540000F80A002010B50022034B1A80A6
:10549000034B186803681B68984710BDF60A002084
:1054A0000C0D002010B5034B186803685B68984723
:1054B00010BDC0460C0D002030B5FF24FF2508E0CC
:1054C000037863400749CC5C6C400749CD5C110010
:1054D00001304A1E92B20029F2D12802204380B244
:1054E00030BDC04628C1000028C2000070B50E00C3
:1054F00014001D00FFF78AFF2A0021003000FFF78B
:105500004BFF012804D00324FFF788FF200070BD63
:1055100044F600339C420BD864000748B0FBF4F01B
:1055200080B22900FFF79AFF012803D00324EBE79C
:105530002320F5E70024E7E7A07F170010B5FFF769
:1055400065FF0022054B1A7000210120FFF7D4FEF1
:10555000FFF79AFFFFF762FF10BDC046FA0A00206E
:1055600010B5FFF753FF00210020FFF7C5FEFFF73E
:1055700099FFFFF753FF10BD70B506000C00150032
:10558000FFF744FF0E4B1B889BB2032B04D8052466
:10559000FFF744FF200070BD094B198889B2094804
:1055A000FFF78AFF08B10524F2E7064B1A7832703C
:1055B000034A1288033A2A80013323600024E7E774
:1055C000000B0020100D002070B506000C00150027
:1055D000FFF71CFF184B1B78012B04D00524FFF7A5
:1055E0001DFF200070BD601E144B1860144C012379
:1055F0002380067023885D19ADB22580218889B289
:10560000FFF75AFF23889BB25A1C92B22280C2B283
:105610000C49CA5423889BB25A1C92B22280000AB9
:10562000C0B2C854084B01221A7001210020FFF7B4
:1056300063FE0024D3E7C046FA0A0020FC0A0020DB
:10564000020B0020100D0020FB0A002000B583B0E3
:105650006B46D81DFFF7D2FE1D4B1B78DBB2012B2A
:105660000DD033B1022B1CD0032B05D0002003B08A
:1056700000BDFFF709FFF9E7FFF706FFF6E7154A58
:105680000023138013889BB2591C89B211806A468B
:10569000D179114AD15402220D4B1A70FFF7F4FE52
:1056A000E4E70C4B1B889BB2FF2B0CD809490B88F5
:1056B0009BB25A1C92B20A806A46D179064AD154EA
:1056C000FFF7E2FED2E70322014B1A70F8E7C0466B
:1056D000FA0A0020000B0020100D002010B5164B18
:1056E0001B78DBB21BB1012B08D0002404E00021A1
:1056F0000120FFF701FE0024200010BD0F4B1B8886
:105700009BB25BB90820FFF7C7FD04000021012010
:10571000FFF7F2FD0022084B1A70EDE7074C2188D5
:1057200089B2074B1868FFF74DFE00232380054B15
:105730001B6898470024DFE7FB0A0020020B0020CB
:10574000FC0A0020100E002010B50C4B1B78DBB2B9
:105750001BB1022B0CD0002403E00120FFF79CFDBD
:105760000400FFF79FFE0122044B1A70200010BDB9
:105770000220FFF791FD0400F3E7C046FA0A00207B
:1057800070B50C000B88052B01D0032070BD41784B
:10579000090283781943013189B2C2781202037970
:1057A0001A43531E9BB240F2CE75AB4201D903207F
:1057B000ECE7002323800133037023880133238027
:1057C000530712D0D508EDB20135EDB2861C4570F5
:1057D0002388013323800023300000F045FC38B9D2
:1057E00023885D1925800020D0E7D508EDB2EDE7CC
:1057F00000F0DFF9CAE700B583B00B88052B02D0B3
:10580000032003B000BD41780902837819430131B8
:1058100089B203790BB10320F3E7C278531EDBB2E0
:10582000FD2B01D80320ECE7002001AB5870FF2AC4
:105830000AD0002201AB1A700123012201A800F056
:1058400013FC20B90020DCE7FE3A1A70F4E700F000
:10585000B0F9D6E7F8B50C000B88052B01D803206A
:10586000F8BD4178090283781943013189B2C278C1
:10587000120203791A43477953070BD0D308DBB2DE
:105880000133DBB2551EADB240F2AF76B54204D95A
:105890000320E5E7D308DBB2F4E7BB4201D00320E5
:1058A000DEE70630012300F0DFFB18B90523238073
:1058B0000020D5E700F07DF9D2E770B50C000B8829
:1058C000052B01D0032070BD41780902837819436C
:1058D000013189B2C278120203791A43531E9BB276
:1058E00040F2CE75AB4201D90320ECE700232380C0
:1058F00002330370238801332380530711D0D50866
:10590000EDB20135EDB2861C45702388013323804A
:10591000300000F011FC38B923885D192580002083
:10592000D1E7D508EDB2EEE700F043F9CBE710B5CB
:105930000B88052B01D0032010BD41780902837824
:105940001943013189B203300123012200F03AFBEF
:1059500008B90020F0E700F02CF9EDE770B50C0075
:105960000B88052B01D8032070BD4178090283788C
:105970001943013189B2C278120203791A43457979
:10598000531E9BB2772B01D90320EDE75300DBB206
:105990009D4201D00320E7E70630012300F012FB0F
:1059A00018B9052323800020DEE700F002F9DBE7C9
:1059B00070B50C000B88052B01D0032070BD417819
:1059C000090283781943013189B2C5782D02037920
:1059D0001D436B1E9BB27C2B01D90320EEE70023F5
:1059E000238003330370238801332380861C6B00DC
:1059F000437023880133238000232A00300000F005
:105A0000E1FA30B96D00ADB22388ED182580002091
:105A1000D4E700F0CEF8D1E7F8B504000F000B880A
:105A2000092B4BD945782D0283781D430135ADB242
:105A3000C678360203791E434179090283791943F6
:105A4000013189B2C2791202037A1A43407A731E75
:105A50009BB27C2B01D90320F8BD0AB90320FBE7D8
:105A6000792A01D90320F7E75300834201D00320AC
:105A7000F2E7012320000A3000F0A4FA10B1D0B9F7
:105A80000020E9E700233B80172222703A88013288
:105A90003A80A01C720062703A8801323A8032006B
:105AA000290000F08FFA0028E9D173009BB23A88F0
:105AB0009B183B80E3E700F07CF8CDE70020CBE7C4
:105AC00070B50C000B88052B01D0032070BD417808
:105AD000090283781943013189B2C5782D0203790F
:105AE0001D436B1E9BB27B2B01D90320EEE70023E5
:105AF000238004330370238801332380861C6B00CA
:105B000043702388013323802A00300000F02AFAF2
:105B100030B96D00ADB22388ED1825800020D5E79F
:105B200000F047F8D2E7000070B50D000130054BDA
:105B30001C882200044905F033FE01342C8000202B
:105B400070BDC046240B0020040B0020F0B51700E8
:105B5000CD0807260E40B3401C000122BA4092B285
:105B6000013A92B2EB00C91A8A4011004619337803
:105B700001354019027812021A4312B28A4313B255
:105B800023431BB29AB23370120A0270F0BD10B5F3
:105B9000CC08012393409BB2013B025D0019407881
:105BA0000002104307221140084180B21840C0B2E1
:105BB00010BD012808D018B1072803D0042000E048
:105BC000002070470620FCE70220FAE710B50C0021
:105BD00011001A00631EDBB2F62B02D9022420004A
:105BE00010BD164B1C7038B10224002CF7D1FFF702
:105BF0004BFBF8B90324F2E71148124B1860124826
:105C0000124B18601248134B18601348134B18605E
:105C10000020134B18601348134B18601348144BA3
:105C200018601448144B1860029B2000FFF75EFCBC
:105C30000400DAE70122114B1A70D0E73D0B002077
:105C40003D550000340B002061550000380B00204A
:105C5000C95500002C0B002079550000280B0020AE
:105C6000300B00204D560000180E0020DD560000BD
:105C7000100E002049570000140E002000000020E4
:105C800010B5074B1B78012B01D0062010BD054B2A
:105C90001B6898470022024B1A700020F6E7C046A6
:105CA00000000020340B002010B582B0354B1B786B
:105CB0001BB10624200002B010BD6B46D81DFFF7B3
:105CC000F7FA012801D00024F4E76B4607331B786C
:105CD000022B03D0042B16D00024EBE72A4B1B68C1
:105CE0002A4A2B492B4898470400002846D1294BC3
:105CF0001B78294A1278934201D0002BDAD1042074
:105D0000FFF7CAFAD6E7224B18680478234B1C70B9
:105D10000122234B1A7000230F2B0EDCDA002149DD
:105D2000525C52B1944201D00133F5E7DB00CB184D
:105D30005B68164998471A4B1870164B1B78FBB1D5
:105D4000174B1B787BB11248104A0121118013496F
:105D50000C78802149422143046821700068118831
:105D60004C1C14804354104B1B680B4A1078084A93
:105D70001168064A1288984700249BE7002499E797
:105D8000002497E700000020280B0020460B00208D
:105D9000400B0020440B00203D0B00203C0B00205A
:105DA000260B0020040000202C0B0020F8B5050075
:105DB0000E00002836D000241F2C30DCE200121B1D
:105DC0009300EB185B690BB10134F5E7E3001A1B94
:105DD0009700EF19F268BA61B2687A6172683A6145
:105DE0003268FA600022BA601B1B9A007368535134
:105DF00001F0F8FD7860601C00E001301F2810DC25
:105E0000C200121A9300EB185B69B2689342F4D196
:105E1000C200121A9300EB1800225A61EDE701202C
:105E20004042F8BD01204042FBE770B50500002864
:105E30003CD000241EE00020D8B9E200121B9300E1
:105E4000EB185A69AAB1E3001B1B9E00AE19B0699A
:105E50009047B368F268511E8B421BDB4FF6FF710F
:105E60008A4217D0E200121B9300EB1800225A61FD
:105E70009A6101341F2C17DC01F0B4FDE300191BFB
:105E80008A001100AA185268801A4B599842D2DA37
:105E9000181AD1E7E200121B9600AE190133B36065
:105EA00001F0A0FD7060E4E7002070BD01204042D9
:105EB000FBE70000024B1860024B19607047C046B8
:105EC000480B00204C0B002010B582B004000023CA
:105ED0000373174A00681060164A60681060164A1B
:105EE000A068106061730093E1235B020022002030
:105EF000FFF76CFEFFF7C4FE220020320F4B1A6042
:105F000006320F4B1A60043A0E4B1A6002320E4BE7
:105F10001A600E4B22691A600D4B62691A600D4BB4
:105F2000A2691A60E2690C4B1A6002B010BDC0464B
:105F3000080D0020040D00200C0D0020400E002054
:105F40003C0E0020240E00202C0E0020300E0020DD
:105F5000280E0020380E0020340E002010B5FFF768
:105F6000A3FE10BDF8B5144B1B681B8803B3134C7C
:105F70002768013989B28C189C4202DC0C0013009E
:105F80000DE0012015E065007D192E88360A0670A7
:105F90002D7845700134A4B2013B9BB20230002B36
:105FA000F1D1074B1B682BB100209847002000E07F
:105FB0000120F8BD0020FCE7400E0020380E002034
:105FC0004C0B0020F0B5C64600B582B00193234CBF
:105FD00024682488C4B3224D2E68013989B28C46C6
:105FE0008D18A54235DCCBB1012B2AD01D480468A1
:105FF000002C30D061460198A047002025E06F00BA
:10600000F7193B881B0A03703F7847700135ADB222
:10601000013CA4B20230002CF1D1E7E70D001400DE
:10602000F9E75F00F719047824023C8041780C43BB
:106030003C8001339BB2013DADB20230002DF0D166
:10604000D4E70B001500F9E7012002B004BC90462C
:10605000F0BD0120F9E70020F7E7C046240E00203C
:10606000340E0020480B0020F0B5D6464F4680B5D0
:1060700083B0050091462E4A12681288002A4ED03D
:106080004846C40801342B480668013989B248469D
:106090000818904249DCC80807220A4001928BB1D7
:1060A000012B2CD000203BE06B1C9A46471CBFB252
:1060B000301808220199FFF76AFD2870013CA4B24C
:1060C00038005546002CEFD107214B461940013DC1
:1060D0002B780822521A9340DBB213412B70002018
:1060E0001EE0471CBFB26B1C9A462B783018082262
:1060F0000199FFF72BFD013CA4B238005546012C55
:10610000EFD807224B461A400AB9002008E02B7846
:10611000D2B230180199FFF719FD002000E00120EC
:1061200003B00CBC91469A46F0BD0120F8E7C0468A
:106130003C0E0020280E0020F0B5D646474680B51C
:1061400083B0070092461C4B1B681B885BB3D408C6
:1061500001341A4A1668013989B252468A189A429D
:1061600027DCC80807230B4001930DE07B1C9846F1
:10617000451CADB2301808220199FFF708FD3870B0
:10618000013CA4B228004746002CEFD1072153461A
:106190001940013F3B780822521A9340DBB2134169
:1061A0003B70002000E0012003B00CBC90469A46F2
:1061B000F0BD0120F8E7C0462C0E0020300E002074
:1061C000704701222223C2547047000070B50500B9
:1061D0000C002C2005F0DAFA50B10A230384056084
:1061E000044B4362044B83624460044B186070BDEF
:1061F0000020FCE7C1610000C3610000440E0020E4
:1062000010B503689B68984710BD70B506000D0077
:1062100014000C2005F0BAFA06604560048170BDD8
:1062200010B503689B68984710BD10B50368DB681C
:10623000984710BD10B503681B68984710BD10B58E
:1062400043680BB1C068984710BD0000F8B5040062
:106250000D0017001E00182005F098FA40B10761E4
:10626000C66045600460034B4361069B8360F8BDD4
:106270000020FCE73F6200004160C260704710B53B
:10628000436903B1984710BD01222023C2547047CF
:10629000F8B507000E001500002406E0311938009B
:1062A0000830FEF7D3FF0134A4B2AC42F6D3F8BDF8
:1062B00070B505000E002C2005F068FA040078B1D6
:1062C00046600560083001228021FEF7A1FF054BE2
:1062D0006362054BA36200222023E254200070BDBC
:1062E0000020FCE7916200008962000010B5436A5B
:1062F000984710BD416270478162704730B50023F6
:10630000934205DAC55CCC5CA54203D10133F7E7C3
:10631000002030BD0120FCE7018070470288FF2388
:10632000134009021943018070470388FF229343F9
:1063300019430180704710B501600021416002617E
:10634000436140F20C3C604400F064F810BD70B54D
:1063500006000C0040F2BC23C0180A00012101F025
:1063600067F840F2D423F35A13B9012B1CD070BD47
:1063700040F25C23F018210000F02EFD3000FD30CB
:10638000FF30210000F050FAF1E72A01521BD00043
:106390001830301804300122210001F01EF90135B7
:1063A000EDB2032DF1D9E2E70025FAE770B506005A
:1063B0000C0040F25C23C01800F0F0FF00250AE05A
:1063C0002B015B1BD800183030180430210001F07D
:1063D00029F90135EDB2032DF2D970BD70470000E7
:1063E00030B5050018B100244FF6FF720BE0002213
:1063F0000BE01002120A2B5D5A405200044BD35E90
:1064000043409AB201348C42F3D3100030BDC046F1
:10641000880000200028FDD0002302E00022C254A2
:106420000133072BFADD00238360C3607047F8B5A2
:1064300007000D0014001E000023C3560BB10120FD
:10644000F8BD013303703200210028003B699847F2
:1064500088B92900220000239E4205D9CD5CD45C76
:10646000A54206D10133F7E7012333B901204042A9
:1064700003E00023F9E70120404200233B70DFE7FF
:1064800070B506000588002401E0013084B2AC42FA
:1064900011D26219521090B24FF6FF731340DB0015
:1064A0007268D35A8B420AD0EFD910B1013885B245
:1064B000EDE70500EBE7AC4202D04FF6FF7070BD90
:1064C0007268E300D35A994202D04FF6FF70F6E7A4
:1064D0002000F4E7022908D00023C3560C218B4387
:1064E000920052B21A43027070470023C356013122
:1064F0008B431A430270F7E710B50400236B2200A8
:10650000E16A606CFFF793FF0128F7D010BD10B56A
:106510000400238F626BA169606CFFF788FF01287C
:10652000F7D010BD10B50400A06A236A1918E36BF8
:10653000C2184023E35A1B1A606CFFF778FF01284A
:10654000F2D010BD30B510B10C78072C00D9FEE7A1
:106550003023C454002308E09A008A1855681A00B2
:106560000C329200821855600133A342F4DB30BD37
:10657000F8B5CE46474680B505008846C2788023E8
:106580005B421343C370002700243023EB5C9F421F
:1065900058DA3B000C339B00EB1899889A799146A6
:1065A000DE794046FFF76CFF4FF6FF7290421BD03A
:1065B00042461288904219D2C00043465B689C460E
:1065C00060448378994513D243684A4611015918AB
:1065D000C9B1002323E02149C9181A1D9200515165
:1065E0000133072BF7DD2DE00023FAE70021EFE769
:1065F0000021EDE71949C9181A1D920051510133C4
:10660000072BF7DD1EE00023FAE7221D9200144855
:10661000006850510134E4B2082C17D80133B3425A
:1066200016DACA889342F0DA0A68D018221D92005E
:106630005051EFE70949C9181A1D92005151013311
:10664000072BF7DD0CBC90469946F8BD0023F7E711
:10665000EA787F231340EB70013796E78802002029
:106660009002002070B50400150028B1FFF76AFF02
:1066700029002000FFF77CFF70BD01650022442344
:10668000C252002342744C2283540C328354553A34
:106690005923C2547047000010B582B00400019124
:1066A0008023037601001C31002304E001AAD25CA0
:1066B000CA5401339BB2032BF8D908222023E25499
:1066C00020001430044B1B68984701992000FFF705
:1066D000D4FF02B010BDC046840000200023282251
:1066E00083548384038F43761B0A83763A23C35CE7
:1066F000C376704730B50123037043695B0F5B07B6
:1067000040F200642343436108242023C45400233F
:10671000193403554468640F640740F280552C43D4
:106720004460437400248384C384282544553C3545
:106730004D5B4585896EC16203873A214454C3632A
:1067400003640A3143520231435282644C2284541E
:10675000036543655833C4540133C45430BD00004D
:10676000F0B5C64600B5984606AC20CC2788012671
:106770005924065540F27F0C26342140047D63469F
:106780009C430C43047504799C43214301710287A7
:106790003A22434683544623C752AA88084B9A801C
:1067A000EA88DA802A681A60AA689A60C3634C2370
:1067B000C65410220C33C25404BC9046F0BDC046EF
:1067C000E80E0020F0B5C64600B5984606AC20CCD1
:1067D000278801265924065540F27F0C2634214093
:1067E000047D63469C430C43047504799C43214318
:1067F000017102873A22434683544623C752AA882E
:10680000084B9A80EA88DA802A681A60AA689A6037
:10681000C3634C23C65413220C33C25404BC9046A9
:10682000F0BDC046E80E002070B582B004000378C9
:10683000002B00D141E25822825C002A00D142E2C2
:106840004420205A38B1091889B24420215202301C
:10685000205A814223D8A06C858B618D8D4224D033
:10686000002009B100B90023002B00D12DE2637C88
:1068700023B94C21615C002900D128E233B1002109
:106880004423E152237A5B09042B16D0103AD3B289
:10689000052B00D90FE29A00CC4B9B589F46CC4960
:1068A0002000FFF7EAFE032508E2006AE56A2842B5
:1068B00001D00120D5E70020D3E7237B6A4613707F
:1068C000637B5370A37B9370E37BD370009B636502
:1068D000002363745822A3540325EFE12000FFF73F
:1068E000FDFEE06BC288E284042A24D80421891AC0
:1068F00089000C230B4023210B43237625001C35F4
:106900000068002303E0C15CE95401339BB29A4262
:10691000F9D820001430AF4B1B689847012244235C
:10692000E25200220833E25411320C33E2540125C2
:1069300000226274C2E1212323762277120A627751
:106940000023A377E377E4E7237A5B09032B05D0E1
:10695000A1492000FFF7A0FE0325E9E7637A6A4614
:106960001370A37A53701288E17A238F9A4205D06C
:106970009A492000FFF790FE0325D9E73A23E35C0C
:106980009942F5D1E38C042B04D800225823E25419
:106990000225CDE7E26B1168A28C0732934223DC1B
:1069A000D8B225001935DAB200239A4204D9CE5C58
:1069B000EE5401339BB2F8E7E38CA3842823E3561B
:1069C0000722121A520013435BB2012213432376AB
:1069D00001254423E552200014307E4B1B68984764
:1069E00012225823E254A3E722001932002303E0C5
:1069F000C85CD05401339BB2062BF9D90723A3847A
:106A00002133E35C2376E3E7237A5A09012A05D090
:106A100071492000FFF740FE032589E72822A15C89
:106A2000183A13408B4205D06D492000FFF734FE21
:106A300003257DE7102359402823E154E38CA28CE1
:106A4000934204D800225823E254022570E7E16BF8
:106A500009688918D01D834226DCDBB2D2B29A1AAB
:106A6000D2B22600193695B2002303E0C85CF05478
:106A700001339BB29D42F9D8E38CA3842823E356CB
:106A800007218A1A520013435BB201221343237673
:106A900001254423E552200014304E4B1B689847D3
:106AA00012225823E25443E722001932002303E064
:106AB000C85CD05401339BB2062BF9D9A38C0733A1
:106AC000A3842823E35C2376E2E72000FFF706FE99
:106AD00040232376200014303E4B1B689847012248
:106AE0004423E25200220833E25414320C33E254BD
:106AF00001251DE7237A5A09022A05D036492000CC
:106B0000FFF7CAFD032513E7627A69460A70A27A85
:106B10004A700988E07A228F914205D02F492000DF
:106B2000FFF7BAFD032503E73A22A25C9042F5D1B4
:106B300003221A40032A16D0012A55D1237B6A4624
:106B40001370637B5370A37B9370E37BD3701388C4
:106B5000E384E26BD288934227D922492000FFF7D1
:106B60009BFD0325E4E69B1013400132D31A9BB230
:106B7000E384E26BD1888B4204D8106821000C3189
:106B8000002209E017492000FFF777FD0325CFE633
:106B90008D5C8554013292B29342F9D8E38CA38480
:106BA00000225823E2540225C2E60023A384603366
:106BB000237601251C3BE55220001430054B1B6851
:106BC000984715225823E254B2E6C04628C3000075
:106BD000000004058400002023000A064300040688
:106BE00000000305050004053A492000FFF754FDA5
:106BF00003259DE6237A5A095AB92822A15C183A3E
:106C00001A408A420BD034492000FFF745FD032586
:106C10008EE632492000FFF73FFD032588E610226B
:106C200051402822A154E26B1268A08C1218E18C0A
:106C3000C51DA9421BDCDB0705D525000935091A4E
:106C400089B200230AE0802109052000FFF724FD16
:106C500003256DE6E85CD05401339BB29942F9D824
:106C6000E38CA38400225823E254022560E6DB076C
:106C700003D42000093000230AE080210905200008
:106C8000FFF70AFD032553E6C15CD15401339BB2E3
:106C9000062BF9D9A38C0733A3842823E25C38336D
:106CA00013432376200014300D4B1B6898470125B1
:106CB0004422A5523CE601253AE601250DB15922B0
:106CC000A55402B070BD0025F8E70125F6E70125BF
:106CD000F4E7C046100007060000030523000A067B
:106CE000840000200023282283548384437A43763F
:106CF000837A8376C37AC376704730B5C36BD9681D
:106D000021B19A681568DC88002310E01C689A6835
:106D10001068D988002303E0C25CE25401339BB2BF
:106D20009942F9D815E0EA5CCA5401339BB29C42FF
:106D3000F9D8C36B9A88D2050BD41C689A6810687E
:106D4000D988002303E0C25CE25401339BB299422C
:106D5000F9D830BDF0B5012404705C268D5D40F299
:106D6000805C6544ED00EF084469640F64073C43B0
:106D700044610825202405550024193544558E5DAD
:106D800040F2006C6644F600F70845686D0F6D0729
:106D90003D4345600474447400258484C4842826DB
:106DA000855536368E5B46850486436304873A23D1
:106DB000C554C46304640A33C4521C33C95A1A3B11
:106DC000C15282640633C554046544650C33C5540E
:106DD0000133C554F0BD000070B582B004000378E3
:106DE000002B00D1D0E24423C35A3BB1C91889B269
:106DF0004423C1520233C35A994229D8637C23B930
:106E00004C22A25C002A00D1BCE24BB100224423F8
:106E1000E252237A5B09042B1FD05823E35C6BB347
:106E20005823E35C122B00D13EE100D88AE0142BFA
:106E300000D108E2152B00D09CE2237A5A09032ADC
:106E400000D13CE2BE492000FFF726FC032392E27A
:106E5000BC49FFF712FC032397E2237B6A461370B9
:106E6000637B5370A37B9370E37BD370009B63655C
:106E7000002363745822A354033386E2257A6D09F4
:106E80006B1EDBB2012B07D9AF492000FFF704FCD2
:106E90000323032BC4D178E2637A6A461370A37A82
:106EA000537011882187E27A3A23E254606BFFF72E
:106EB000E7FA20864FF6FF7398421ED0616B3A23A3
:106EC000E65C0B88984209D24B68C000181883789A
:106ED0009E4210D2436836019B1900E00023E36311
:106EE0006BB1012D11D09B88DB0725D514225823C7
:106EF000E254573BCDE70023F1E70023EFE7934946
:106F00002000FFF7C9FB0323C3E79A88920708D53F
:106F10009A6862B11268226411225823E254573BE6
:106F2000B7E78B492000FFF7B7FB0323B1E7DA6827
:106F3000002AF0D11A68EEE785492000FFF7ACFB84
:106F40000323A6E7112B00D014E24C23E35C9BB390
:106F500000232365E36B9B685B689847042805D092
:106F6000032808D0022815D0012304E22000FFF7EF
:106F7000C4FE0320F4E700234C22A354083AA35292
:106F800020001430734B1B68984758230022E254AA
:106F9000563BF0E100234C22A354083AA352216D42
:106FA00029B96D492000FFF777FB0323E3E12000B7
:106FB000FFF772FB0323DEE12000FFF793FE227A46
:106FC00003231340032B07D0012B47D06349200034
:106FD000FFF762FB0323CEE1921013400422D21A82
:106FE00092B2E284E36BDB889A420AD8256C2000D7
:106FF0000C3000239A420AD9C15CE95401339BB298
:10700000F8E757492000FFF747FB0323B3E1E38C80
:10701000A38460232376E36B9A6832B10122442370
:10702000E2520833E2544B3BA5E1D86860B19A883C
:10703000D20509D41D68D988002303E0C25CEA5454
:1070400001339BB29942F9D820001430414B1B68A0
:10705000984700225823E254563B8CE1237B6A4632
:107060001370637B5370A37B9370E37BD37013889F
:10707000E384E26BD288934205D939492000FFF7B7
:107080000BFB032377E10023A384603323760122E3
:107090001C3BE252200014302E4B1B6898471222F2
:1070A0005823E254573B66E14C23E35C73B9237ADF
:1070B0005A09FABB2822A15C183A1A408A4253D0D6
:1070C00028492000FFF7E8FA032354E10023236551
:1070D000E36B9B685B689847042805D0032808D0B9
:1070E000022815D0012346E12000FFF706FE032009
:1070F000F4E700234C22A354083AA3522000143092
:10710000144B1B68984758230022E254563B32E147
:1071100000234C22A354083AA352216D29B90E49E9
:107120002000FFF7B9FA032325E12000FFF7B4FAA6
:10713000032320E102492000FFF7AEFA03231AE1FE
:1071400023000A06000004050100040511000906D9
:10715000000001068400002021000008100007063E
:107160000500040500000305A18C226C5218E08C78
:10717000CD1DA8423EDCDB0705D525000935401AA8
:1071800080B200230AE0802109052000FFF784FA7D
:107190000323F0E0E95CD15401339BB29842F9D863
:1071A000E38CA3842823E35C202213432376E36B40
:1071B0009A6832B101224423E2520833E2544B3B35
:1071C000D9E0DA6862B19988C90509D41D68D88800
:1071D000002303E0D15CE95401339BB29842F9D813
:1071E000200014306B4B1B68984700225823E25450
:1071F000563BC0E0DB0703D42000093000230AE03F
:10720000802109052000FFF747FA0323B3E0C15CA2
:10721000D15401339BB2062BF9D9A38C0733A38435
:107220002825635D20221343237601224423E25262
:1072300020001430574B1B689847635D1022534061
:107240006355012397E02000FFF74CFDE06BC188F8
:10725000E18404291ED80422521A92000C23134000
:1072600043221343237625001C35006800239942EE
:1072700004D9C25CEA5401339BB2F8E72000143011
:10728000444B1B689847E38CA38400225823E254A4
:10729000563B70E0412323762177090A617700236A
:1072A000A377E377200014303A4B1B6898470122FC
:1072B0004423E25214321433E254573B5BE0282259
:1072C000A15C183A13408B4205D033492000FFF7E8
:1072D000E3F903234FE0E36B1968A68C8919E38C6B
:1072E000F21D934228DCDBB2F6B29E1BF6B22500FB
:1072F0001935B0B2002303E0CA5CEA5401339BB2F3
:107300009842F9D8E38CA384282563570722961B5B
:10731000760033435BB201221343237620001430FE
:107320001C4B1B689847635D102253406355002235
:107330005823E254563B1EE020001930002303E09E
:10734000CA5CC25401339BB2062BF9D9A38C073314
:10735000A3842825635D2376200014300D4B1B6821
:10736000984701224423E252635D10225340635543
:10737000012300E00123002262745822A25C22B99A
:10738000002302E00123F8E701235922A35402B0AD
:1073900070BDC046840000200000030510B50478CD
:1073A0007F227F231940037D93430B4303750379A9
:1073B000934319430171047010BD032303734B6899
:1073C0000360002343730A8902824A894282582259
:1073D0008A5A82825A228A5C8275002203834383FE
:1073E0008383827703622433C254002305E01A00AA
:1073F0000A329200002111500133092BF7DD70474A
:107400004B091F2211401E3A8A400A339B0019582B
:107410000A431A5070474B091F2211400A339B0040
:107420001B58012088401840431E9841C0B2704745
:10743000F0B5D6464F464646C0B582B00400C17886
:107440004BB2002B1CDB438B9A1892B2934200D2B2
:107450004283228B531C9BB29A4200D22383A67D87
:107460000136A38A5E434B064AD5628B238A9A4231
:107470003ED2628B618A002391425B412422A35455
:1074800002B01CBC90469946A246F0BDA27F0123E3
:1074900093402362A37F98465943A78B7B1EC9184C
:1074A0002000FFF7B8FF8246B8B90135AE4223D9B4
:1074B0004B460BBBA38B01339BB2A383A18A8B42A8
:1074C000E8D90123A383A37F0133DBB2A377A27D95
:1074D0009342DBD90023A377D8E727713B0A637176
:1074E0004346A371104B1B6820009847D146DCE748
:1074F000002540F20009D9E7002323836383B8E71E
:10750000637B002BB5D023796A461370637953707F
:107510001388A383A279A2770123934023620023D7
:10752000238363836373A4E78400002010B5040001
:107530006823C35C022B01D0002310E00430636F8A
:1075400098470C4B1B68200098470EE0221D210035
:107550001031980009580978D1540133DBB2072B58
:10756000F4D9044B1B682000984700227023E25492
:1075700010BDC04684000020F8B504000F001100C3
:10758000069D1A00FFF76EF82A68A265A9885C2399
:10759000E152E9880233E15228890233E052EB6874
:1075A0006366AE7A6223E6542B7C6826A35522607C
:1075B000082222730022627367656C27E0536E20F5
:1075C000215270216254079A6267022B01D01DB1CB
:1075D000F8BD002AFCD1FEE7FEE710B50323C35631
:1075E000002B14DB5C23C35A4FF6FF718B420BD088
:1075F0006AB1426D918B8B420DD043B97033C35C3D
:107600002BB1FFF793FF02E07023C35C03B910BDF9
:10761000FFF78CFFFBE7126A416E0A42EDD0FFF7DD
:1076200085FFF4E770B5C578EA097F2319400C009F
:1076300001787F26B14321430170D2012B401343CF
:10764000C37070BD10B589B2FEF781FE10BD70B574
:1076500005000C00012906D0092908D02D23EC547F
:107660000023AB6270BD0022A823C254F6E78369F1
:107670009847F3E710B50121FFF7E9FF10BD0000BF
:1076800010B50400836A9C4661448162436A994252
:1076900007D82D23E35C092B18D89B00754AD358D3
:1076A0009F460921FFF7D3FFF3E7734B1B68642B59
:1076B0000DD8714A13680133136040F2F41363620A
:1076C0006369984702212000FFF7C1FF10BD6B4B93
:1076D0001868FEF795FD00F053FF0022664B1A6014
:1076E000E7E7A823E35C002BF0D0A369984770205C
:1076F000E369984703212000FFF7A9FF0022A82390
:10770000E254E3E7A823E35C002BDFD02F23E15C06
:107710000133E35CC9182000236898470421200046
:10772000FFF795FF00239322A3541532A354CDE70E
:10773000A823E35C002BC9D09823E25C673BE254AA
:1077400001226333E25405212000FFF780FF6369C3
:107750009847BBE7A36A322BB8D906212000FFF770
:1077600076FFB3E707212000FFF771FF2000636871
:10777000984740F2F4136362A8E720002369984712
:107780000028A3D001213E48FEF7CFFD08212000AC
:10779000FFF75DFF9AE75C233A4AD35A63B93A4A46
:1077A00012784AB90121384A1170384A126840F2F9
:1077B000E83C624436490A60344A1168344A126827
:1077C000914204D91BB9304B1B78012B2CD0314B83
:1077D0009B8A83B9304A12786AB95C3229498A5A3D
:1077E0004AB101212C4A1170284A126840F2E83C43
:1077F00062442A490A60254A1168284A126891425F
:1078000000D863E7002B00D060E7234B1B78012BE7
:1078100000D05BE7023300220321214802F07CF80C
:1078200000221D4B1A7051E70233002205211C482B
:1078300002F072F80022144B1A70C8E759000020B9
:10784000104A885201333D2BF8DD0A2306E003235A
:10785000F9E7590000200F4A88520133292BF8DD3F
:10786000104B1B78012B00D130E70F48FFF702FFC8
:107870002CE7C04640C300005C0B0020D00F002066
:10788000DE0B0020D80B0020520B0020600B0020E4
:10789000580B0020740B0020510B0020540B0020CB
:1078A000E8130020DC1300200818002010B5406801
:1078B00002F07AFC002010BD30B59FB00D00446886
:1078C000002101A802F03CFC01950023049301A9CA
:1078D000200002F0BDFE00201FB030BD30B5A1B0C9
:1078E0004468002103A802F02BFC254B03930025DC
:1078F000069503A9200002F0ABFE224C224A00218B
:10790000200002F0E7FD214A0121200002F0E2FD03
:107910001F4A0221200002F0DDFD01231D4A002143
:10792000200002F0E7FD01231B4A0121200002F0A4
:10793000E1FD0123194A0221200002F0DBFDA369C9
:1079400040221343A361009500233D3A002120000B
:1079500002F0D4FC124940F218328B58FF208343C6
:107960008B500095002300220121200002F03CFCF6
:107970000121200002F026FF002021B030BDC046CA
:1079800020A10700000002400000113900002F3A3A
:107990000000333B220200E0333300E0444404E0C3
:1079A00000E100E030B599B040680B680493002313
:1079B0006A46137013735A226C46A3548D89059539
:1079C00006E0CA1814791A006A4414760133DBB24F
:1079D0009D42F6D86A46002102F082FC002019B0D0
:1079E00030BD0000014B18687047C046600B002096
:1079F0000020704710B5038942681148824215D0B3
:107A00000020104CA24213D00F4CA24212D00F4CB7
:107A1000A24211D00E4CA24210D080019B001B1834
:107A20000C4A944663441960002010BD0120E8E729
:107A30000220E9E70320EAE70420EBE70520ECE772
:107A40004040004080400040C040004000410040B5
:107A500040410040004800400389426811498A4281
:107A600015D000211048824213D01048824212D013
:107A70000F48824211D00F48824210D089019B00EA
:107A80005B180D4A944663441868C0B270470121E0
:107A9000E8E70221E9E70321EAE70421EBE7052112
:107AA000ECE7C0464040004080400040C0400040FD
:107AB00000410040404100400048004010B5030034
:107AC0000A0040681B89012199404FF6FF73194055
:107AD00002F0D4FF002010BD826811688023DB050E
:107AE0000B431360002070478268136802490B4003
:107AF000136000207047C046FFFFFFBF8268116817
:107B00008023DB050B4313600020704782681368F5
:107B100002490B40136000207047C046FFFFFFBFC3
:107B200010B5806840F2E832B2FBF1F2802109051D
:107B300003F066F8002010BD002070470020704759
:107B400010B5406803F077F8002010BD10B540680C
:107B5000E121490203F076F8002010BD10B502487B
:107B600003F070F8002010BD0000074010B5406819
:107B7000022103F063F8002010BD10B54068012118
:107B800003F05CF8002010BD10B5406803F0F4F875
:107B9000002010BD10B5012902D08368984710BDA0
:107BA00043689847FBE7000010B5042812D880000E
:107BB000294B1B589F46294B18680021FEF730FBC4
:107BC000274B18680021FEF72BFB264B1868002175
:107BD000FEF726FB10BD214B18680121FEF720FBA4
:107BE0001F4B18680021FEF71BFB1E4B1868002175
:107BF000FEF716FBEEE7194B18680021FEF710FBA5
:107C0000174B18680021FEF70BFB164B1868012173
:107C1000FEF706FBDEE7114B18680121FEF700FBBB
:107C20000F4B18680121FEF7FBFA0E4B1868002174
:107C3000FEF7F6FACEE7094B18680021FEF7F0FAD6
:107C4000074B18680121FEF7EBFA064B1868002174
:107C5000FEF7E6FABEE7C04668C300000810002041
:107C60000C1000200010002003681A685B68D21A0C
:107C7000037A5A4341F28833534340F6FF72B3FB11
:107C8000F2F3436043B142F210725A4341F2883139
:107C9000CB1AB2FBF3F38361704730B5002401E0E7
:107CA000013424B2A5006D58A84201D29442F7DBFA
:107CB000E41820B230BD000010B5202003F066FDAE
:107CC0000400002CFDD0200000F040F80023638267
:107CD0006433A38201332382014BE361200010BD92
:107CE000697C000010B50400C36998471222A35EA6
:107CF000228A208BE168FFF7D0FFE08210BD70B5CB
:107D000005000C0040F2AC33C0182022002103F023
:107D100050FD002106E06B1840F2AC3C63441A7041
:107D2000013101340022A256002AF4D170BDC823CB
:107D3000C154704710B504000349FFF7E0FF042168
:107D40002000FFF7F4FF10BD24C10000034B0360C7
:107D500006225A60012303727047C04610100020AB
:107D600010B5114C200002F0E7FD0022C02189046B
:107D7000200002F095FD0D4802F0E8FE0C4CE121D8
:107D80004902200002F05EFF0A4940F230328B586F
:107D9000FF2083437F3803438B5021000648FEF7C2
:107DA00087FA064B186010BD123C8C7F120000044D
:107DB0000020074000E100E0C8020020000F002082
:107DC00010B5074BDB69DB0500D410BD044B1B6805
:107DD00004490B70044B18680122FEF787FAF4E798
:107DE00000200740F80E0020000F002010B50F4CB7
:107DF00023680F4A13402360182002F09DFD1920CC
:107E000002F09AFD1A2002F097FD1D2002F094FD69
:107E10008023DB05074A9A63EE229A65064A1A64B4
:107E20006268F023DB031343636010BD40400040F1
:107E30003FC0FFFF001011118800AA0070B52E4C42
:107E4000002247F20001200002F02AFD200002F08B
:107E500073FD40F2E83280210905284802F0D0FE87
:107E6000274B1A6832235A43264B5A6000229A60E5
:107E700005321A60234B1B68DB03FBD5214B002125
:107E800019601E48046880221204224302601C4AC2
:107E90001268322042435A60996005221A60194BD9
:107EA0001B68DB03FBD5174A0020106013490C68E0
:107EB00080239B0523430B60134D40F220342B5944
:107EC000124E334044F2000633432B510C6880239A
:107ED000DB0523430B600A4B1B6832214B43536085
:107EE000906005231360074B1B68DB03FBD5002262
:107EF000044B1A6070BDC0460300C05E000105401F
:107F0000580A002010E000E000E100E0FF00FFFF61
:107F100070B52D4C002240F20071200002F0C0FC30
:107F2000200002F009FD40F2E832802109052748CF
:107F300002F066FE264B1A6832235A43254B5A60DC
:107F400000229A6005321A60224B1B68DB03FBD5C6
:107F5000204B002119601D4804688022120422432E
:107F600002601B4A1268322042435A60996005221F
:107F70001A60184B1B68DB03FBD5164A0020106003
:107F800012490C6880239B0523430B60124D40F27D
:107F900020342B59FF26B343BF3E33432B510C688B
:107FA0008023DB0523430B60094B1B6832214B43C5
:107FB0005360906005231360064B1B68DB03FBD501
:107FC0000022044B1A6070BD0200805E0000054074
:107FD000580A002010E000E000E100E070B582B037
:107FE000324C200002F0A8FC0022E021C90220004F
:107FF00002F056FC40F2E832802109052C4802F0DC
:10800000FFFD2C4B1A6832235A432B4B5A60002237
:108010009A6005321A60284B1B68DB03FBD5264BA0
:108020000021196022480468802212042243026061
:10803000204A1268322042435A60996005221A6031
:108040001D4B1B68DB03FBD51B4B00241C60184A2F
:1080500010688021890501431160184E40F22035D7
:10806000715917480840C021090401437151106833
:108070008021C905014311600E4A126832214A432A
:108080005A609C6005221A600B4B1B68DB03FBD512
:108090000022094B1A60064B009300230021094877
:1080A000FEF7D4F8084B186002B070BD0400005F02
:1080B00000100540580A002010E000E000E100E058
:1080C000FFFF00FFB4020020040F002010B5802243
:1080D000D20540F200135921D1504339D1507231A9
:1080E000D150D358002BF2D0042002F01DFC1020F8
:1080F00002F05AFC0021072002F06AFC0F4C00221B
:108100000021200002F0CCFB200002F015FC02F060
:108110009DFE8023DB051A6C09491140A022120341
:108120000A431A641A6C07491140A02212040A4338
:108130001A641122044B5A6310BDC046170E8C03FB
:10814000FFFFF0FFFFFF0FFF0002004010B5FFF739
:108150004DFEFFF773FEFFF741FFFFF7B7FFFFF795
:10816000D7FE10BD084A13680133136040F6B832D9
:10817000934203D00122054B9A607047802252023D
:10818000034B5A60F6E7C046600B00200000054034
:1081900000E100E010B5044B1868FEF770F801220A
:1081A000024B9A6010BDC046040F0020001005402D
:1081B00010B5064C21000648FEF708F8054B18607C
:1081C000FEF71EF8044B1C6010BDC04600000240C4
:1081D00094020020D00F0020080F002010B5084C9A
:1081E00022000021074802F0E5F9643CC423E3586B
:1081F0000BB1054898470121024802F0DFFA10BD93
:108200006C0F002000000240080F002010B5021D76
:108210000068002102F064F810BD000070B51A4C2F
:108220000E221A492000FDF7F0FF194B18600021BB
:10823000FEF700F8174D0F2229002000FDF7E5FF9B
:10824000154B18600021FDF7F5FF0E2229002000D4
:10825000FDF7DBFF114B18600021FDF7EBFF0D224E
:1082600029002000FDF7D1FF0D4B18600021FDF71C
:10827000E1FF0C2229002000FDF7C7FF094B186021
:108280000021FDF7D7FF70BDA40200208040004010
:10829000D40F002040400040E40F0020FC0F0020DD
:1082A000D80F0020F80F002010B502220649074819
:1082B000FDF7ABFF064C20600121FDF7BBFF2068F6
:1082C0000021FDF7ADFF10BD80400040A40200205A
:1082D000E00F002070B5164D164C09222900200031
:1082E000FDF793FF144E30600121FDF7A3FF3068C6
:1082F0000021FDF795FF082229002000FDF785FFEA
:108300000E4D28600121FDF795FF28680021FDF73B
:1083100087FF05220A492000FDF777FF094C2060FE
:108320000121FDF787FF20680021FDF779FF70BD6F
:1083300000400040A4020020081000200C10002083
:10834000404100400010002010B5042206490748B3
:10835000FDF75BFF064C20600121FDF76BFF2068F5
:108360000021FDF75DFF10BD40410040A402002048
:10837000F40F002070B5124D124C06222900200087
:10838000FDF743FF104E30600121FDF753FF3068C9
:108390000021FDF745FF072229002000FDF735FFEA
:1083A0000A4B18600021FDF745FF0A222900200032
:1083B000FDF72BFF064B18600021FDF73BFF70BD5A
:1083C00000400040A402002004100020E80F00201C
:1083D000DC0F002010B5002206490748FDF715FF05
:1083E000064C20600121FDF725FF20680021FDF7E4
:1083F00017FF10BD00400040A4020020F00F002035
:1084000010B50F2206490748FDF7FFFE064C206015
:108410000121FDF70FFF20680021FDF701FF10BDCE
:1084200040410040A4020020EC0F002010B5FFF7EF
:108430003BFFFFF74FFFFFF787FFFFF79BFFFFF7BC
:10844000C9FFFFF7DDFFFFF7E9FE10BD70B50400BF
:108450000B00124D00220100280002F0E9FA0A2266
:108460002100280002F0F2FA14B90121F823E950A2
:10847000012C04D0022C07D0032C0AD070BD02219D
:10848000F823064AD150F5E70421F823034AD150D6
:10849000F2E70821F823014AD150EFE70030044009
:1084A0000F22014B5A6570470030044010B5104C44
:1084B000200002F041FAE022D2020021200002F066
:1084C000EFF900210B4802F0A9FA03210020FFF781
:1084D000BDFF06210120FFF7B9FF04210220FFF7AD
:1084E000B5FF05210320FFF7B1FFFFF7D9FF10BD4E
:1084F0001CFE0340003004408000034BC3584FF67D
:10850000FF7018407047C0460030044010B5FFF7B8
:108510001DFEFFF78BFFFFF7C9FFFFF721FC02F0FD
:1085200095FC002140F200138022D205D150FFF7C4
:108530003FFE10BD114B8422802149029950BFF3A8
:108540004F8FBFF36F8F01219950BFF34F8FBFF350
:108550006F8F802040047F315850BFF34F8FBFF39F
:108560006F8F7E399950BFF34F8FBFF36F8F0231FA
:108570009950BFF34F8FBFF36F8F704700E100E05A
:1085800010B50121064802F059FB064B01225A6042
:1085900001325A6002325A60802252041A6010BDC1
:1085A0000020074000E100E0BFF34F8F034A044B77
:1085B000DA60BFF34F8FC046FDE7C0460400FA05FE
:1085C00000ED00E010B5034B18680121FDF728FE0F
:1085D00010BDC0460410002010B50400064A1388E0
:1085E00002218B431380054B18680021FDF718FE0C
:1085F0000023237010BDC046D80B0020F00F0020D0
:1086000010B50400064A138802210B431380054B62
:1086100018680121FDF704FE0123237010BDC04638
:10862000D80B0020F00F002010B50400064A138874
:1086300001218B431380054B18680021FDF7F0FDE5
:108640000023237010BDC046D80B0020F40F00207B
:1086500070B50500054A0124138823431380044B99
:1086600018680121FDF7DCFD2C7070BDD80B0020CF
:10867000F40F002010B50400034B18680021FDF72B
:10868000CFFD0023237010BDEC0F002010B50400B7
:10869000034B18680121FDF7C3FD0123237010BDB2
:1086A000EC0F002010B50020FFF77EFA10BD10B5CA
:1086B0000220FFF779FA10BD10B5044B1868FDF7DA
:1086C000B4FD43425841C0B210BDC046E80F00207F
:1086D00010B5024B1868FDF7A8FD10BDDC0F002097
:1086E000F0B5C64600B50400FFF7E6FA40F63C18C0
:1086F0004346E050FFF7E0FA40F64017E051FFF73D
:10870000DBFA40F64416A051FFF7D6FA40F64815BA
:108710006051FFF7D1FA40F64C12A0504346E3589F
:108720001749D960E159174BCB60A159CB6061590A
:10873000CB60A258D360144A40F6E803E250134AD3
:108740001033E250124A2833E250124A0433E25006
:10875000114A243BE250114A0433E250104A0C33D0
:10876000E250104A0433E2500F4A1C33E2500F4AE1
:108770000433E2500E4A643BE25004BC9046F0BD24
:108780000CC500007CC30000B9860000D186000043
:108790008D86000075860000518600002986000045
:1087A00001860000D9850000AF860000A586000084
:1087B000C5850000F0B5CE4600B582B01600002891
:1087C00000D1C7E00F000C00002525E06300634ADC
:1087D0009D5AEBB2624A9146019319001000FFF7CF
:1087E000D9F9484610380199FFF7D4F95D4B4B444D
:1087F00040F24D429B5C082B0DD1053B2A00012124
:10880000594801F089F806E06300544A9D5AE9B2DC
:108810005648FFF7BFF90134F3199C4200DB99E099
:108820000A2CF8D8A300524AD3589F4663004B4AFB
:108830009D5A012DEFD16A426A41D3B24D4A914609
:10884000019319001000FFF7A5F948461038019967
:10885000FFF7A0F9484620380199FFF79BF9E9B2E4
:1088600048465038FFF796F90120FFF79DF9424935
:108870004248FDF79BFACEE76300384A9D5AE8B2BA
:108880003F4B18702D0A012D05D0002DC3D10420B7
:10889000FFF78AF9BFE7FFF787F9F6E763002F4A8A
:1088A0009D5A022DB7D137493448FDF77FFAB2E718
:1088B00063002A4A9D5A012D0AD0092140F24D43F6
:1088C000294AD154304B18680021FDF7A9FCA2E7D2
:1088D0002E48FEF7CFFE9EE740F24D43224AD35C7E
:1088E000082B98D163001D4A9B5AFF251D401B0A87
:1088F000012B90D102332A0000211B4801F00CF813
:1089000089E76300154A9D5A03232A00012116486E
:1089100001F002F87FE740F24D43134AD35C082B85
:1089200000D078E763000D4A9D5A03232A000121F5
:108930000D4800F0F1FF6EE740F24D430A4AD35C68
:10894000082B00D067E7053B2A000221064800F00B
:10895000E3FF60E702B004BC9146F0BD740B002059
:10896000F41C0020F4F6FFFFE8130020E41C0020B4
:10897000A0C60000041D00202C1000203C10002088
:10898000E4130020BC130020EC0F00200818002086
:1089900010B5144B1A68144B9A4206D0134940F292
:1089A000AC23134AD150022010BD124C02220221E6
:1089B0002000FDF78FFD022203212000FDF78AFD34
:1089C0002000FDF799FD431C01D00320ECE7084C83
:1089D00040F25C33E3589847074A40F2AC23E25038
:1089E0000220E1E7C80C002064616F6C20000008E1
:1089F000E8130020481700200000060610B5124BAF
:108A00001A68124B9A4206D0114940F2AC23114A1F
:108A1000D150022010BD104C022202212000FDF78F
:108A200059FD2000FDF768FD431C01D00320F1E74C
:108A3000084C40F25C33E3589847084A40F2AC23B4
:108A4000E2500220E6E7C046C80C002064616F6C6B
:108A500020000008E8130020481700200000060648
:108A600010B5124B1A68124B9A4206D0114940F2C7
:108A7000AC23114AD150022010BD104C0222032118
:108A80002000FDF727FD2000FDF736FD431C01D037
:108A90000320F1E7084C40F25C33E3589847084A5A
:108AA00040F2AC23E2500220E6E7C046C80C0020AA
:108AB00064616F6C20000008E81300204817002054
:108AC0000000060610B5244B1A68244B9A4206D0C3
:108AD000234940F2AC23234AD150022010BD224842
:108AE000FDF715FD431C12D01E4C40F29433E058A4
:108AF0000433E15AFDF774FC40F26833E052083B5E
:108B0000E018FDF7F9FC431C1ED00320E6E7164CE5
:108B1000022202212000FDF7DDFC022203212000B9
:108B2000FDF7D8FC2000FDF7E7FC431C06D00F49F9
:108B300040F2AC230B4AD1500220CFE740F25C3325
:108B4000084AD3589847F2E740F25C33054AD358B5
:108B500098470320C2E7C046C80C002065766173C1
:108B600020000008E8130020481700200000060637
:108B700010B52D4B1A682D4B9A4206D02C4940F265
:108B8000AC232C4AD150022010BD2B48FDF7BFFC6E
:108B9000431C25D02848FDF7C5FC431C20D0254C9C
:108BA00040F29433E0580433E15AFDF719FC40F2E7
:108BB0006833E0523433E058143BE358C01840F2B5
:108BC000A032A15AC91AFDF70BFC40F26A33E052F9
:108BD0000A3BE018FDF790FC431C1ED00320D3E7AE
:108BE000154C022202212000FDF774FC0222032111
:108BF0002000FDF76FFC2000FDF77EFC431C06D033
:108C00000E4940F2AC230B4AD1500220BCE740F29F
:108C10005C33084AD3589847F2E740F25C33054A80
:108C2000D35898470320AFE7C80C002065766173DE
:108C300020000008E8130020481700200000060666
:108C400010B5264B1A68264B9A4206D0254940F2A9
:108C5000AC23254AD150022010BD2448FDF762FC08
:108C6000431C17D0204C40F29C33E058143BE3588F
:108C7000C01840F2A032A15AC91AFDF7B1FB40F268
:108C80006A33E0520A3BE018FDF736FC431C1ED065
:108C90000320E1E7154C022202212000FDF71AFC17
:108CA000022203212000FDF715FC2000FDF724FC23
:108CB000431C06D00E4940F2AC230B4AD15002208F
:108CC000CAE740F25C33084AD3589847F2E740F2CB
:108CD0005C33054AD35898470320BDE7C80C0020F1
:108CE0006576617320000008E81300204817002013
:108CF00000000606704770477047704710B503685C
:108D0000DB00DB08094C63610023237123745E22BE
:108D1000A354037BA361011D027B20001C3002F0E1
:108D20003FFD2000FFF772FA10BDC046080F00207B
:108D3000F0B58BB00600C04B1B78012B23D0446FDD
:108D400005007C3540F2BC23BC4AD358DB00DB086D
:108D50009C421AD040F20023B84AD358DB00DB080B
:108D60009C4229D040F26023B44AD358DB00DB0890
:108D70009C4242D0702C42D040F24D43AF4AD35C6B
:108D8000082B00D196E00BB0F0BD40F2BF23D35CBE
:108D90005B06EFD440F2C823D05C002304E0E95C1A
:108DA000A74AD15401339BB29842F8D8012140F22E
:108DB000C923A24AD154DDE740F25423D35C002BEF
:108DC000D0D0002304E0E95C9E4AD15401339BB229
:108DD000072BF8D9012140F20D23984AD154C9E755
:108DE000E95C994AD15401339BB2072BF8D9012190
:108DF00040F26D23914AD154BCE70023F5E78F4838
:108E000040F2C0437822B2181278C25401220833CB
:108E1000C254043B726FC25040F2B84C6044082206
:108E2000290002F0BDFCA7E740F2514283498A5C69
:108E300058008649415A5218980003A942500133FC
:108E4000062BF1D9039B9C4236D0049B9C4200D157
:108E500086E0059B9C4200D1B8E0069B9C4200D175
:108E600002E1079B9C4200D134E1089B9C4200D167
:108E700066E1099B9C4200D085E77C23F25C01AB54
:108E80001A707D22B25C5A701988714C2000FDF76F
:108E900043FA7F23F15CA01CFDF747FA002340F260
:108EA000484266498B50736740220021280002F037
:108EB00080FC68E70023C3E77C23F05C01AB1870FB
:108EC0007D22B15C59701A8893009B185A00614B3F
:108ED0009A420CDC01AB1A8893009B185A0049F6A1
:108EE00040439A4203DD01AB1A885B4B1A827E2312
:108EF000F05C01AB18707F22B15C59701A88930046
:108F00009B185A00554B9A4208DB01AB1A88930014
:108F10009B185A0044F61F639A420BDD002340F26F
:108F2000484246498B50736740220021280002F0D6
:108F300040FC28E701AC2388474F7B828023F15C0B
:108F400038000E30FDF7EAF98123F35C7B81822340
:108F5000F35C23708323F35C637023883B81DDE73C
:108F60007C23F35C01AC23707D23F35C6370218868
:108F70003B4F3800FDF7D0F97E23F35C23707F234D
:108F8000F35C63702188B81CFDF7C6F98023F35C9D
:108F900023708123F35C63702188381DFDF7BCF9D1
:108FA0008223F35C23708323F35C63702188B81DF4
:108FB000FDF7B2F9002340F2484220498B50736715
:108FC00040220021280002F0F4FBDCE67C23F35C65
:108FD00001AC23707D23F35C63702188214F38003E
:108FE000FDF79AF97E23F35C23707F23F35C6370B3
:108FF0002188B81CFDF790F98023F35C237081234E
:10900000F35C63702188381DFDF786F98223F35CD9
:1090100023708323F35C63702188B81DFDF77CF90E
:10902000002340F2484205498B50736740220021DB
:10903000280002F0BEFBA6E6DC130020E8130020A7
:10904000A8160020EC1500204C160020240A002051
:10905000E40B00206F110100D80B0020E1B1FFFFED
:10906000EC0B0020F40B00207C23F35C01AC23709C
:109070007D23F35C63702188494F3800FDF74CF97C
:109080007E23F35C23707F23F35C63702188B81C1C
:10909000FDF742F98023F35C23708123F35C637056
:1090A0002188381DFDF738F98223F35C2370832370
:1090B000F35C63702188B81DFDF72EF9002340F2A0
:1090C000484238498B50736740220021280002F043
:1090D00070FB58E67C23F35C01AC23707D23F35CCA
:1090E00063702188304F3800FDF716F97E23F35C5A
:1090F00023707F23F35C63702188B81CFDF70CF9A3
:109100008023F35C23708123F35C63702188381D16
:10911000FDF702F98223F35C23708323F35C637011
:109120002188B81DFDF7F8F8002340F248421D4998
:109130008B50736740220021280002F03AFB22E6A0
:109140007D23F15C0902013BF35CC91889B2174C1D
:109150002000FDF7E1F87F23F15C0902013BF35C9D
:10916000C91889B2A01CFDF7D7F88123F15C090268
:10917000013BF35CC91889B2201DFDF7CDF88223AD
:10918000F15CA01DFDF7C8F8002340F248420549F4
:109190008B50736740220021280002F00AFBF2E5A1
:1091A000FC0B0020E8130020040C00200C0C002015
:1091B000F0B5C64600B582B02E4A2F4B1A602F4933
:1091C000C4232F4AD1502F4B1B682F4A1500483D0E
:1091D0002E4C29682000FDF7AEF840F2BC23E018C1
:1091E0002900FEF7EAF8002424E0A700284BFD58E8
:1091F000264B98465B69E10009198A008932FF32E3
:1092000024498C466244043240F2BC21414420018E
:10921000001BC600300018304044043001953F194F
:10922000BD003935FF35654404350095FEF7A4F9D6
:109230000134E4B2032CD8D9144C40F2BC23E61814
:10924000144D603BE018636932002900FDF782FD90
:109250002000FD30FF3032002900FDF74BFA50238B
:109260000D4AD15C2000FDF7A1F802B004BC904685
:10927000F0BDC046FD8C000084000020318D000050
:10928000080F0020200A0020F4060020E813002028
:10929000340A0020AC06002028030020124B1B6873
:1092A000DB070FD4114B1B7801221A407AB1192B1E
:1092B0000DD004210E4A11700133DBB20B4A13703A
:1092C0001A2B0BD0084A1368013313607047002A29
:1092D000F2D1084A1178064A1170EDE700231370A5
:1092E000014A1360EEE7C046D00C0020CC0C0020F1
:1092F000440A0020E4130020F0B5C64600B504007F
:10930000374B1B78DB075AD407210120FFF79EF863
:1093100040F6481563591E680120FFF7EDF83060EC
:109320006059FEF7DFFC2E4A13780133137040F6C4
:109330003C1563591E680320FFF7DEF83060605962
:10934000FEF7D0FC40F64017E3591E680020FFF7F7
:10935000D3F83060E059FEF7C5FC40F64C16A3592F
:109360001B6898460220FFF7C7F843461860A059CB
:10937000FEF7B8FCFFF794F86359D98A194D280015
:10938000FCF7CCFFE359D98A40F64413E358DB8A53
:109390001B029BB2C91889B2A81CFCF7BDFF40F69E
:1093A0004813E358D98AA359DB8A1B029BB2C91818
:1093B00089B2281DFCF7B0FF04BC9046F0BD072120
:1093C0000120FFF743F840F6441563591E68012059
:1093D000FFF792F830606059FEF784FCA3E7C046BF
:1093E000D40C0020D80B002010B5034B18680021C6
:1093F000FCF716FF10BDC04604100020F8B5174B4F
:109400001868FCF712FF44424441E4B2144B186858
:10941000FCF70BFF45426841C5B2124B1868FCF7D8
:1094200004FF46427041C6B20F4B1868FCF7FDFEC0
:1094300047427841C7B20D4B1868FCF7F6FE43422D
:109440005841C0B24000C019400080194000401986
:1094500040002018064B1870F8BDC046D40F0020FD
:10946000E40F0020FC0F0020D80F0020F80F002090
:10947000DD13002070B50400374B1868FCF7D5FEEB
:109480000500364B1868FCF7D0FE0DB9012836D020
:109490000023334A1370334A1360334A1370012296
:1094A000324B1A7040F22043E0180921FEF7CFF842
:1094B0000120FEF779FB40F61C13E0180021FEF7AF
:1094C00069FB40F6FC03E0180021FEF763FB40F661
:1094D0000C13E0180021FEF75DFB00212448FCF787
:1094E00024FF092240F24D43E25422490B88042212
:1094F00093431E4A1278920013430B8070BD1B4B9E
:109500001B78012B12D0164B1B781BB11A2B01D0E4
:10951000192B03D1184B1B78042B15D0164B187838
:10952000FEF742FB0022114B1A70DEE740F22043A7
:10953000E018FEF79FF80A4B1B78002BE3D10F4988
:109540000F48FCF733FCDEE70E4B1A780A4B1A7013
:109550000022034B1A70E1E7DC0F0020E80F002027
:10956000CC0C0020D00C00204C1D0020DC1300206F
:10957000DE0B0020D80B0020440A0020CC13002072
:109580003C100020E413002070B5134B1A221A601F
:10959000C8205860114A9A600022DA6010494FF6DC
:1095A000FF740C6040F2F4134B600E4B8B600E4B5B
:1095B000CB600E4B01251D6040F6B8355D600C4D4B
:1095C0009D60DA600B4B1C6058600B489860DA6055
:1095D0000A48FCF7EBFB70BDCC1300209D92000005
:1095E0001C100020F9920000E81300202C1000202D
:1095F000E9930000BC130020A98500003C10002066
:109600007047000000B585B0009B5B0F5B077022C0
:109610001343009301236A4613732E33C35C302235
:10962000825C9B186A461371024B1B686846984718
:1096300005B000BD8400002010B5054840F6201399
:10964000C35840F61C1C60449847012010BDC0461A
:10965000E813002010B5054840F62413C35840F61F
:109660001C1C60449847012010BDC046E813002030
:1096700000B585B0009B5B0F5B071843009000238B
:109680006A461373024B1B686846984705B000BDD5
:10969000840000200120704710B504000121044817
:1096A000FCF743FE002240F2EC33E25010BDC0460E
:1096B000DE0B0020F8B540F25523164AD35C032B8D
:1096C00003D0022B07D00020F8BD002140F2552323
:1096D000D1540020F8E7104C104E20222100300019
:1096E000FCF70CFEC1B20E4D2800FCF717FE0D4B27
:1096F000E718280036302022210002F051F82022FD
:109700002100300002F04CF8002240F25523FA54B8
:109710000120D9E7E81300203A180020D80C0020D7
:10972000DE0B0020AEFBFFFF70B586B00600114CCB
:10973000002240F25523E25402AD103200212800ED
:1097400002F037F83300323302930323AB801D332A
:10975000EB801133F15C2000FD30FF3040F6B83370
:1097600001930095002342F20302FDF72BF806B0A7
:1097700070BDC046E8130020124B002240F24D415C
:109780005A5411481139585010481C395850104833
:10979000043158500F480C3158500F48043158507C
:1097A0000E48043158500E480831585040F2D070DD
:1097B0000431585004315A500520073158540131B2
:1097C0005A547047E8130020719600000596000077
:1097D00029970000B59600003996000055960000C4
:1097E0009596000070B5464B1B68464940F208420A
:1097F000995001210C3A99500431043299500231A8
:109800000C3A99500439043A9950002454B13C4B15
:109810001B68002140F2EC3299503A491C329950B1
:1098200000245FE0364E40F2A845654340F22043F5
:10983000E81833689C466044FEF77CFA3268531996
:1098400040F6B40C6344FF21197040F2D043E8188D
:109850001018A2002B4BD050631D03762A4A40F209
:10986000EC33C250294A043BC250043BC15442F27B
:109870001071143BC15021008631FF31C900CD0861
:10988000436F5B0F5B072B43436740F28523E1186F
:10989000C900CE08EC2543595B0F5B0733434351A6
:1098A00040F28533E118C900CE08783543595B0F83
:1098B0005B073343435140F28543E118C900CE08AA
:1098C000783543595B0F5B0733434351904701346D
:1098D0009CE70B4B186840F2BC2C60442100FDF75C
:1098E0008FFD0134272CF4DD054B1B68084940F23D
:1098F00018429950074904329950FFF73DFF70BD57
:10990000480A0020E0130020399600005596000018
:10991000999600000196000010B540F660140155BC
:1099200040F66211425440F661128354002240F224
:109930005523C25410BD000070B586B0040040F637
:109940006113C25C12B90621013BC15440F6601399
:10995000E35C052B00D900E19B00C049CB589F4632
:1099600040F25523E3181B78012B00D1F5E0022BC0
:109970002ED0032B34D040F25523E3181B78002B54
:1099800000D0EAE0012640F2CC43E65402AD1022BA
:109990000021280001F00DFF40F2CC43E3180293B0
:1099A0000323AB80EE8040F25143E15C2000FD30A8
:1099B000FF3040F6B83301930095072342F20102CD
:1099C000FCF7CEFE40F66112A35C013BA354C4E059
:1099D000062240F66013E25400220133E254BCE058
:1099E000002240F25523E254C5E740F25523E31824
:1099F0001B78012B00D1B0E0022B2AD0032B37D0EB
:109A0000013A40F66113E25440F25523E3181B7803
:109A1000002B00D0A1E002AD10220021280001F0AF
:109A2000C8FE40F29343E31802930323AB801D3337
:109A3000EB8040F25143E15C2000FD30FF3040F606
:109A4000B83301930095012342F20402FCF7BAFEF9
:109A500083E040F29343E1182022814801F0A0FE08
:109A6000062240F66013E25400220133E25474E00F
:109A7000002140F25523E154C2E740F25523E31898
:109A80001B78012B69D0022B29D0032B36D0013A49
:109A900040F66113E25440F25523E3181B78002B83
:109AA0005BD102AD10220021280001F082FE40F2BD
:109AB0007343E31802930323AB801D33EB8040F222
:109AC0005143E15C2000FD30FF3040F6B833019394
:109AD0000095002341F20A02FCF774FE3DE040F2DB
:109AE0007343E11820225F4801F05AFE062240F637
:109AF0006013E25400220133E2542EE0002140F2D0
:109B00005523E154C3E740F25523E3181B78012B9A
:109B100025D0022B28D0032B2ED002AD10220021FD
:109B2000280001F046FE4E4B02930323AB801D3309
:109B3000EB8040F25143E15C2000FD30FF3040F605
:109B4000B83301930095012342F20402FCF708FEAA
:109B500040F66112A35C013BA35406B070BD002225
:109B600040F25523E254F8E7062240F66013E2542F
:109B700000220133E254F0E7002240F25523E25480
:109B8000CBE740F25523E3181B78012BE5D0022BDD
:109B90002FD0032B35D040F66213E35C012B35D078
:109BA000002BDAD1002240F27243E25402AD1032AF
:109BB0000021280001F0FDFD40F27243E3180293FA
:109BC0000323AB80023BEB8040F25143E15C200079
:109BD000FD30FF3040F6B83301930095012342F287
:109BE0000302FCF7BDFD40F66112A35C013BA354E8
:109BF000B3E7062240F66013E25400220133E25438
:109C0000ABE7002240F25523E254C4E7022240F2BF
:109C10007243E25402AD0E320021280001F0C9FD6A
:109C200040F27243E31802930323AB80023BEB80C4
:109C300040F25143E15C2000FD30FF3040F6B83384
:109C400001930095012342F20302FCF789FD40F6DF
:109C50006112A35C013BA3547FE7C046CCC6000061
:109C6000880B0020340C002010B58CB08022D20567
:109C700040F200135921D1504339D1507231D150A3
:109C8000D358002BF2D0FEF755FCFEF73FFC2E48D0
:109C9000FEF726FDFFF78CFAFFF7B0FB2822002124
:109CA00002A801F086FD294B1B680293284B1B6814
:109CB0000393284B1B6801930493274B0693274B70
:109CC0000793274C0894274B0993782302AA1384FF
:109CD000463B53842D3B9384D384234B1978013125
:109CE000C9B2002202A8FCF7EFF8FFF74DFCFFF71E
:109CF00079FDFEF745FC02221C4B1A7000221C4B1A
:109D00001A7000211B48FCF7D5F82000BA30042255
:109D1000194901F045FD2000BE300422174901F029
:109D20003FFD09E002A8FCF719F9074C2000FFF7F6
:109D300003FE2000FFF79EFB0D4B1B78002BF1D19B
:109D40000F48FCF772F8EDE7E8130020000F002041
:109D5000E00F0020040F00206C0B0020640B00209B
:109D6000D80B0020740B0020DD130020E41300202A
:109D70004C1D0020B5870000500A00204C0A00202E
:109D80003C10002010B5064B18680121FDF75AFC65
:109D900001210448FDF774FC0122034B9A6010BDB9
:109DA000480A0020081800200001054010B50B6883
:109DB0001BB1002303600B689B004A681AB1436023
:109DC0004A68D2009B184A692AB183614C69E20053
:109DD0001219D4001B190A692AB103610C69E20047
:109DE0001219D4001B198A682AB183608C68E200BA
:109DF0001219D4001B19CA682AB1C360CC68E200EA
:109E00001219D4001B198A6902B1436110BD0828D8
:109E100002D90C2801D809207047102801D80A203F
:109E2000FAE7142801D80B20F6E7182801D80C20EF
:109E3000F2E7202801D80D20EEE7302801D80E20C7
:109E4000EAE70F20E8E7082810D909280DD00A28EA
:109E50000DD00B280DD00C280DD00D280DD00E28BC
:109E600001D0402002E0223000E00C20704710209A
:109E7000FCE71420FAE71820F8E72020F6E70000B6
:109E800030B58369022213438361204B984232D05C
:109E90000B797F242340013B5B064D8840F2FF1283
:109EA0002A40013A12049B184A79CD795219D2B24C
:109EB000013A12029B188A791440013C1B19C361B4
:109EC0008369DB0516D50B7A1F242340013B1B0455
:109ED0008A7A0D7B52192240013A12029B18CA7AE3
:109EE000103C2240013A12019B184A7A1440013C6E
:109EF0001B19C36030BD064C236B064A13400A7819
:109F0000013A120413432363C2E7C0460000024033
:109F100000020040FFFFFCFFF0B583B00F0015000A
:109F20001E00089C254B984205D8254B984222D903
:109F3000244B019302E0FD239B050193280001F0CF
:109F400079FB019901F0DCF901F006FB0023E371D4
:109F5000C0B2431E6371281AA07104350523B5FBF6
:109F6000F3F5257126B3154B9F4209D8144B9F4238
:109F700004D8154D06E0144B0193DFE7114D01E0C5
:109F8000FD25AD05300001F055FB291C01F0B8F9A5
:109F900001F0E2FA00232373C0B2431EA372301A09
:109FA000E07204360523B6FBF3F6667203B0F0BD2B
:109FB00000232373A372E3726372F7E73F420F003B
:109FC000FF340C00CDCC4C3F0000603FF0B5DE46C6
:109FD00057464E464546E0B58BB007900591049232
:109FE0009846149F554B994200D9059340F21409A5
:109FF000CA46C34653460893082B00D89CE05346F4
:10A00000059A5343984601237B80534609934FE0BA
:10A010003B720097089A04990598FFF77DFF01208D
:10A0200017E0202E03D940F21409B2461CE03E721C
:10A030000097089A130004990598FFF76DFF012017
:10A0400007E00097069B089A04990598FFF764FFBC
:10A0500001200BB03CBC90469946A246AB46F0BDF1
:10A0600001235B429C46E1444B460693082B1CD9D6
:10A070004E46049B5E4301233B723C7A202CEFD872
:10A080002000704301F086FA011C029800F050FF96
:10A09000051C039801F07EFA011C281C00F01AFF31
:10A0A0000028CED101343C72E7E7564601367E8067
:10A0B0007E8840F200439E4237D844467443BBFB3F
:10A0C000F4F5052DF2D8584601F0B4FA02902000BC
:10A0D00001F060FA011C029800F02AFF041C28001D
:10A0E00001F0A8FA011C201C00F0F4FE0028DDD0CD
:10A0F000EBB203933B70079B9B69DB050CD5049B7C
:10A10000002B00D184E7059B049A934200D188E795
:10A1100040F21409B246A7E700970023089A0021ED
:10A120000598FFF7F9FE012093E7099B9A46012362
:10A130005B429C46E2445DE700208AE740420F0014
:10A1400070B504000D007422002101F032FB134BA6
:10A150002360E5B1124BE36001232622A3540132B0
:10A16000A35400222823E2540E4B23670C23A3643C
:10A17000023BE364073BE365A365236563652366F0
:10A180002100483120002C30FFF710FE70BD002365
:10A19000E3602622A3540132A354E2E720A1070082
:10A1A000809698000002024010B50C4B984200D0F7
:10A1B00010BD0B4800F0DCFB0A4A802380214904D3
:10A1C000D150BFF34F8FBFF36F8F80218904D150DF
:10A1D000BFF34F8FBFF36F8FEAE7C0460000024026
:10A1E000170E8C0300E100E010B531B1446D21433E
:10A1F0004165C16D01242143C16532B1816D0A43BE
:10A200008265C26D02210A43C265E02142581343B0
:10A210004350E422835802990B43835010BD000041
:10A22000F8B507000E0014001F2951D8CC23C358DD
:10A23000CB40DB074ED4C023C3584FF6FF751D40FB
:10A24000CB005B18DA00AD18234B9C46654423789D
:10A25000012B1DD023699B04204A13402B60237BD4
:10A26000012B1DD0207DFFF7D2FD0004686059232B
:10A27000E35C1BB180239B03184368605A23E35CB3
:10A2800023B180235B036A6813436B60002214E0F0
:10A290002369DB00DB088022D20513432B60DEE755
:10A2A00080239B052A6813432B60DBE7931D9B00EB
:10A2B0001959931C9B0059510132636903339B0860
:10A2C0009A42F3D30123B340D022BB50012000E0D7
:10A2D0000020F8BD0020FCE7000202400000FC1F47
:10A2E00070B504000D00FFF79BFF012800D070BD82
:10A2F000CC23E358EB40DB07FAD5F8E709019200DD
:10A3000011435B001943009B19438023C1507047E0
:10A31000F8B506AC40CC2478022908D89D68402DB9
:10A3200005D8DF68402F02D811B1012926D0F8BD29
:10A3300005B32D0491680D4336062E43A0214650E7
:10A34000BC2541590726B1432143415192684FF63C
:10A35000FC7010401D4A94466044042C07D8043415
:10A360009A6862439200002101F023FADFE7A4001B
:10A370000A3CF5E70022A023C250D8E70FB33F0400
:10A38000D1680F4336063E43B0214650BC254159A3
:10A390007026B143260131434151D2684FF6FC701B
:10A3A00010400A4A94466044042C07D80434DA6802
:10A3B00062439200002101F0FCF9B8E7A4000A3CD6
:10A3C000F5E70022B023C250B1E7C04600020240C8
:10A3D00070B5050050690404FC20800304404FF66A
:10A3E000FC708E6906403443C026AC518969084030
:10A3F0000A498C466044C8242959B93EB1431943DF
:10A400002951042B08D99B000A3B52695A439200F8
:10A41000002101F0CEF970BD0433F6E700020240DE
:10A4200070B54FF6FC740D692540AC26855109695D
:10A430000C400C498C466444BC2541590A4E3140BD
:10A440001E0231434151042B09D99B000A3B12697A
:10A450005A4392000021200001F0ABF970BD043393
:10A46000F5E7C04600020240FFF8FFFF70B5136831
:10A470001B04FF24240423404FF6FC740D68254080
:10A480002B438425435108682040044B9C4660447C
:10A4900012689200002101F08CF970BD00020240A8
:10A4A00070B553681B04FF24240423404FF6FC744A
:10A4B0004D6825402B438825435148682040044B74
:10A4C0009C4660445268D200002101F072F970BDD0
:10A4D000000202407F290AD88423C0584FF6FC733B
:10A4E000034089005918024B9C4661440A6070473A
:10A4F0000002024010B53F290BD8882404594FF6BA
:10A50000FC702040C90041180248844661440A603A
:10A510004B6010BD0002024070B505000C000368DE
:10A52000002B24DB00225B23CA542B685A0022D55F
:10A53000DB00DB082361012323702B689B0022D5FD
:10A54000012323736B689B0220D501225923E25417
:10A550006B68DB021ED501225A23E254EB880F20E0
:10A560001840FFF770FC0600606100231BE0012229
:10A570005B23CA54D9E79B0C40F2FF72134023615E
:10A5800000232370D9E700232373DBE7002259233C
:10A59000E254DDE700225A23E254DFE7EA18117A99
:10A5A000E21811760133B342F8D370BD10B5FFF74E
:10A5B000B3FF10BDF0B5C64600B50400012903D9AC
:10A5C000002004BC9046F0BD61B90600A43601002D
:10A5D000A0310700A83740F2030833685B060AD1B0
:10A5E0000020EEE70600B4360100B0310700B837AE
:10A5F00040F20708F1E735682D0A3F231D400B683C
:10A600004FF6FF701840EB005B19D9004018094B5A
:10A610009C4660441100FFF7C9FF3D6033689B0111
:10A6200005D501234246934023650220C9E7012056
:10A63000C7E7C046000202401B069269120413439A
:10A6400049694FF6FC720A401343F0228350704769
:10A6500070B582B005000C00534B98424DD0AB69E9
:10A6600002221343AB612723E35C23B1AB69FF32C2
:10A67000FF321343AB612623E35C23B1AB6940F2A5
:10A6800000121343AB610023A022AB501032AB5039
:10A6900026001836454B1B680096E26821682800A2
:10A6A000FFF794FC002836D1A36C002B38D1E36C63
:10A6B000002B3DD1A36D002B42D1A36D002B48D1BF
:10A6C000236D002B4ED1636D002B57D1236E002BD1
:10A6D00061D101230093032203212800FFF70EFE1E
:10A6E0002823E35C3BB1AB6980221343AB612B6948
:10A6F000703A13432B6102B070BD2D4800F01CF975
:10A700002C4800F023FA2C4B802252041A6080223D
:10A7100092041A60A3E731002800FFF7B1FBC3E7FA
:10A720002200483221002C312800FFF79FFEBEE7AF
:10A730002200483221002C312800FFF7B1FEB9E792
:10A740002200483221002C3107232800FFF740FE69
:10A75000B3E72200483221002C3107232800FFF7FD
:10A760005FFEADE72300483322002C320721019120
:10A77000002100912800FFF7CBFDA4E72300483318
:10A7800022002C3207210191002100910131280083
:10A79000FFF7BEFD9AE72200483221002C3100234A
:10A7A0002800FFF749FF94E7000002405C0A002000
:10A7B000170E8C031800000400E100E0036D19433C
:10A7C0000165704739B183690322934383618369CB
:10A7D000DB07FCD4704783690122134383618369DB
:10A7E000DB07FCD5F6E7000010B500F02FFB114B9E
:10A7F0005A6B07231340052B1AD89B000E4AD358D7
:10A800009F460E4B186810BD0C4B18684008FAE7BD
:10A810000A4B18688008F6E7084B1868C008F2E78A
:10A82000064B18680009EEE7044B18684009EAE790
:10A830000020E8E700020040E4C600005C0A0020B7
:10A8400010B500F003FB144B5A6B70231340202B00
:10A8500012D007D9402B17D0502B19D0302B0FD046
:10A86000002008E02BB1102BFAD10C4B18684008DF
:10A8700001E00A4B186810BD084B18688008FAE719
:10A88000064B1868C008F6E7044B18680009F2E7A1
:10A89000024B18684009EEE7000200405C0A002005
:10A8A000F0B58BB0019206AC1C4B1E00A4CEA4C424
:10A8B000250034682C6002AC103364CB64C41B6880
:10A8C0002360830AFF2423408BB1850CFC3C2C4081
:10A8D000A40002AAA558124A944665442C68470968
:10A8E0001F263E40B3409C43019A22432A60430EF8
:10A8F0000722134083B1040F043A2240920006ACB1
:10A900001459084A944664442268000D1F252840C3
:10A9100083409A43114321600BB0F0BDFCC6000098
:10A920002002004010020040024A136818431060E1
:10A930007047C0460002004070B584B001AA0A4BBF
:10A940002033110070CB70C1830F9B009B58074AC6
:10A95000944663441A681F2108401E3981400A4307
:10A960001A6004B070BDC046FCC60000040200407E
:10A9700070B584B001AA0A4B2033110070CB70C1AE
:10A98000830F9B009B58074A944663441A681F2113
:10A9900008401E3981408A431A6004B070BDC04629
:10A9A000FCC6000004020040074A084B1B6D034030
:10A9B000984204D0531E002A03DD1A00F5E7012057
:10A9C00070470020FCE7C04680F5200000020040F0
:10A9D000F8B506000F00104C236D10251D402368AC
:10A9E0000422134323601020FFF7DEFF23690722B0
:10A9F00013432361216A0F2399433943216220695C
:10AA000090433043206100F021FA1DB923680421EE
:10AA10008B432360F8BDC04600020040036D012255
:10AA20001343036540F21013C358DB07FAD5704790
:10AA300030B5203189000C58034D2C400C500C5877
:10AA4000134323430B5030BDC0FFE0FF0F290AD949
:10AA5000203189000B581B021B0A0B500B581206A1
:10AA60001A430A507047203189000B581B021B0AF9
:10AA70000B500B5812061A430A50F3E770B5002327
:10AA800000E001330F2B0DD80C00DC40E407F8D5B3
:10AA900004685E000325B540AC431500B5402C4367
:10AAA0000460EEE770BD00007046EFF30881EFF33D
:10AAB0000982024B9847004770470000C1AA000076
:10AAC00010B5430700D40A009369198889B24BF680
:10AAD000AB64A14203D0054800F082FFFEE70024EA
